:100000000C9496030C94BE030C94BE030C94BE0394
:100010000C94BE030C94BE030C94BE030C94BE035C
:100020000C94BE030C94BE030C94BE030C94BE034C
:100030000C94BE030C94BE030C94BE030C94BE033C
:100040000C940F0C0C94BE030C94DD0B0C94B70BAA
:100050000C94BE030C94BE030C94BE030C94BE031C
:100060000C94BE030C94BE03556E6B6E6F776E20BE
:100070006572726F720041204D49464152452050D1
:1000800049434320726573706F6E646564207769BD
:100090007468204E414B2E00546865204352435FE4
:1000A0004120646F6573206E6F74206D61746368A6
:1000B0002E00496E76616C696420617267756D65AA
:1000C0006E742E00496E7465726E616C206572727A
:1000D0006F7220696E2074686520636F64652E20DE
:1000E00053686F756C64206E6F7420686170706502
:1000F0006E2E004120627566666572206973206EFF
:100100006F742062696720656E6F7567682E005492
:10011000696D656F757420696E20636F6D6D756EA6
:1001200069636174696F6E2E00436F6C6C697369EB
:100130006F6E2064657465637465642E0045727229
:100140006F7220696E20636F6D6D756E6963617487
:10015000696F6E2E00537563636573732E00000024
:100160000000250028002B000000000024002700CC
:100170002A000000000023002600290004040404D3
:100180000404040402020202020203030303030341
:10019000010204081020408001020408102001021E
:1001A00004081020000000080002010000030407FA
:1001B00000000000000000005761726E696E673A2F
:1001C0002074686973206578616D706C65206F7646
:1001D0006572777269746573207468652055494447
:1001E000206F6620796F75722055494420636861DD
:1001F0006E676561626C6520636172642C20757343
:1002000065207769746820636172652100207661DA
:100210006C69642062697473290D0A002028004704
:100220006F742062616420726573706F6E736520F5
:100230006F6E206261636B646F6F7220307834334D
:1002400020636F6D6D616E643A20004572726F724B
:10025000206E616D653A20004572726F7220696E82
:1002600020636F6D6D756E69636174696F6E206177
:100270007420636F6D6D616E6420307834332C2090
:100280006166746572207375636365737366756CFC
:100290006C7920657865637574696E672030783491
:1002A00030002076616C69642062697473290D0ADC
:1002B00000202800476F74206261642072657370AB
:1002C0006F6E7365206F6E206261636B646F6F7217
:1002D000203078343020636F6D6D616E643A200099
:1002E0004572726F72206E616D653A2000436172D3
:1002F0006420646964206E6F7420726573706F6E21
:100300006420746F20307834302061667465722008
:1003100048414C5420636F6D6D616E642E204172B4
:100320006520796F75207375726520697420697313
:10033000206120554944206368616E676561626C85
:1003400065206F6E653F004D49464152455F5772CB
:100350006974652829206661696C65643A200041EA
:10036000637469766174696E6720746865205549A5
:1003700044206261636B646F6F72206661696C65B3
:10038000642E0041726520796F7520737572652047
:10039000796F7572204B4559204120666F7220732A
:1003A0006563746F7220302069732030784646464A
:1003B0004646464646464646463F004D4946415219
:1003C000455F526561642829206661696C65643AFD
:1003D00020005043445F41757468656E74696361C1
:1003E00074652829206661696C65643A200046615D
:1003F000696C656420746F2061757468656E7469DA
:100400006361746520746F206361726420666F722B
:100410002072656164696E672C20636F756C64205F
:100420006E6F7420736574205549443A20004E6FF6
:100430002063617264207761732070726576696FE2
:1004400075736C792073656C65637465642C2061C9
:100450006E64206E6F6E65206172652061766169E1
:100460006C61626C652E204661696C656420746FF6
:1004700020736574205549442E0020002030002050
:10048000200020002020004D49464152455F526522
:1004900061642829206661696C65643A20005061B6
:1004A000676520203020203120203220203300209A
:1004B0004164723D3078002056616C75653D30783E
:1004C0000020496E766572746564206163636573AC
:1004D00073206269747320646964206E6F74206D88
:1004E00061746368212000205D200020002000202E
:1004F0005B2000200020002030004D49464152453D
:100500005F526561642829206661696C65643A20E0
:10051000005043445F41757468656E74696361742B
:10052000652829206661696C65643A2000202000F6
:10053000200020200020202000202020202020201B
:10054000002020200020200020202000536563741C
:100550006F7220426C6F636B20202030202031208E
:100560002032202033202020342020352020362027
:1005700020372020203820203920313020313120F0
:100580002031322031332031342031352020416375
:10059000636573734269747300556E6B6E6F776E2B
:1005A00020747970650053414B20696E6469636102
:1005B00074657320554944206973206E6F742063FD
:1005C0006F6D706C6574652E004D49464152452033
:1005D000544E5033585858004D49464152452044D6
:1005E000455346697265004D494641524520506C5D
:1005F0007573004D494641524520556C7472616CCB
:1006000069676874206F7220556C7472616C6967D9
:1006100068742043004D494641524520344B420006
:100620004D494641524520314B42004D49464152C9
:1006300045204D696E692C20333230206279746513
:1006400073005049434320636F6D706C69616E7431
:1006500020776974682049534F2F4945432031382A
:1006600030393220284E4643290050494343206305
:100670006F6D706C69616E7420776974682049537E
:100680004F2F4945432031343434332D3400504901
:10069000434320747970653A2000300043617264EE
:1006A0002053414B3A200020002030004361726407
:1006B000205549443A0044756D70696E67206D6538
:1006C0006D6F727920636F6E74656E7473206E6FD8
:1006D0007420696D706C656D656E74656420666FFD
:1006E00072207468617420504943432074797065A6
:1006F0002E004E65772055494420616E6420636F5B
:100700006E74656E74733A0057726F7465206E650F
:10071000772055494420746F20636172642E004332
:10072000617264205549443A0000590C11241FBEDF
:10073000CFEFD8E0DEBFCDBF11E0A0E0B1E0EEE743
:10074000F5E202C005900D92A037B107D9F722E07B
:10075000A0E7B1E001C01D92A732B207E1F713E0B4
:10076000C6E9D3E004C02197FE010E948E12C5396C
:10077000D107C9F70E94900C0C94BD120C94000094
:100780008CBD9DBD0895AF92BF92CF92DF92EF9244
:10079000FF920F931F93CF93DF936C017B018B012B
:1007A000040F151FEB015E01AE18BF08C017D1077B
:1007B00059F06991D601ED91FC910190F081E02D05
:1007C000C6010995892B79F7C501DF91CF911F915A
:1007D0000F91FF90EF90DF90CF90BF90AF90089572
:1007E000FC01538D448D252F30E0842F90E0821B37
:1007F000930B541710F0CF96089501970895FC01BC
:10080000918D828D981761F0A28DAE0FBF2FB11D13
:100810005D968C91928D9F5F9F73928F90E008956B
:100820008FEF9FEF0895FC01918D828D981731F025
:10083000828DE80FF11D858D90E008958FEF9FEF79
:100840000895FC01918D228D892F90E0805C9F4F4F
:10085000821B91098F73992708958AE791E00E947E
:10086000210421E0892B09F420E0822F089580E003
:1008700090E0892B29F00E942D0481110C94000036
:100880000895FC01A48DA80FB92FB11DA35ABF4F25
:100890002C91848D90E001968F739927848FA6897F
:1008A000B7892C93A089B1898C91837080648C93D3
:1008B000938D848D981306C00288F389E02D808182
:1008C0008F7D80830895EF92FF920F931F93CF93B4
:1008D000DF93EC0181E0888F9B8D8C8D98131AC07B
:1008E000E889F989808185FF15C09FB7F894EE8962
:1008F000FF896083E889F9898081837080648083BF
:100900009FBF81E090E0DF91CF911F910F91FF9009
:10091000EF900895F62E0B8D10E00F5F1F4F0F73B1
:100920001127E02E8C8D8E110CC00FB607FCFACF6C
:10093000E889F989808185FFF5CFCE010E944104C5
:10094000F1CFEB8DEC0FFD2FF11DE35AFF4FF0823D
:100950009FB7F8940B8FEA89FB8980818062CFCFA3
:100960000F931F93CF93DF938C01D0E0C0E0F80189
:10097000EC0FFD1F6491662341F08AE791E00E942D
:100980006304892B11F02196F2CFCE01DF91CF9134
:100990001F910F910895CF93DF93EC01888D8823E9
:1009A000B9F0AA89BB89E889F9898C9185FD03C0D2
:1009B000808186FD0DC00FB607FCF7CF8C9185FFB7
:1009C000F2CF808185FFEDCFCE010E944104E9CFB7
:1009D000DF91CF910895833081F028F4813099F030
:1009E0008230A9F008958730A9F08830C9F08430AA
:1009F000B1F4809180008F7D03C0809180008F775B
:100A000080938000089584B58F7784BD089584B560
:100A10008F7DFBCF8091B0008F778093B0000895D9
:100A20008091B0008F7DF9CF1F93CF93DF93282F54
:100A300030E0F901EC55FE4F8491F901E057FE4F8B
:100A4000D491F901E458FE4FC491CC23A9F0162F9C
:100A500081110E94EB04EC2FF0E0EE0FFF1FE25A31
:100A6000FE4FA591B4918FB7F894EC91111108C085
:100A7000D095DE23DC938FBFDF91CF911F91089536
:100A8000DE2BF8CFCF93DF9390E0FC01E057FE4FD1
:100A9000249184589E4FFC0184918823D1F090E0EA
:100AA000880F991FFC01E859FE4FA591B491FC01F4
:100AB000E25AFE4FC591D49161110EC09FB7F894D0
:100AC0008C91E22FE0958E238C932881E223E8839A
:100AD0009FBFDF91CF9108958FB7F894EC91E22BEF
:100AE000EC938FBFF6CF3FB7F8948091750190914A
:100AF0007601A0917701B091780126B5A89B05C039
:100B00002F3F19F00196A11DB11D3FBFBA2FA92F8C
:100B1000982F8827BC01CD01620F711D811D911D89
:100B200042E0660F771F881F991F4A95D1F70895F5
:100B30008F929F92AF92BF92CF92DF92EF92FF92ED
:100B40004B015C010E9473056B017C010E947305DF
:100B50006C197D098E099F09683E734081059105D6
:100B6000A8F321E0821A9108A108B10888EEC80E06
:100B700083E0D81EE11CF11C81149104A104B1048E
:100B800029F7FF90EF90DF90CF90BF90AF909F90AC
:100B90008F900895BC016E5F7F4FDC01ED91FC9159
:100BA0000190F081E02D40E0099591E0811190E005
:100BB000892F08958430F1F050F4813091F030F1B4
:100BC000823091F0833099F088E690E00895863085
:100BD000B9F098F08730B9F08F3FB1F786E790E031
:100BE00008958DE391E0089589E291E008958FE002
:100BF00091E0089583EF90E0089584EC90E00895EB
:100C000082EB90E0089588E990E0089585E591E011
:100C1000089508958EBD00000DB407FEFDCF8EB57A
:100C20000895DF92EF92FF920F931F93CF93DF937C
:100C30007C01062FD42E152F80E590E00E94C00382
:100C400060E0F70186850E94140582E10E940A0691
:100C5000CD2DD12F0C0F1D2F111DC017D10721F045
:100C600089910E940A06F9CF61E0F7018685DF913C
:100C7000CF911F910F91FF90EF90DF900C9414058E
:100C80001F93CF93DF93EC01162F80E590E00E9435
:100C9000C00360E08E850E941405812F80680E9449
:100CA0000A0680E00E940A06182F61E08E850E94E5
:100CB0001405812FDF91CF911F9108950F931F93FA
:100CC000CF93DF93EC01062F142F80E590E00E9474
:100CD000C00360E08E850E941405802F0E940A06E2
:100CE000812F0E940A0661E08E85DF91CF911F91CE
:100CF0000F910C941405CF92DF92EF92FF920F9315
:100D00001F93CF93DF93EC016B01F42E890140E038
:100D100062E00E945E0644E06AE0CE010E945E0648
:100D200040E864E1CE010E945E06A6016F2DCE016F
:100D30000E94110643E062E0CE010E945E068FB77A
:100D4000F894C0907101D0907201E0907301F0901E
:100D500074018FBF89E5C80ED11CE11CF11C6AE04B
:100D6000CE010E94400682FF1BC040E062E0CE013F
:100D70000E945E0664E4CE010E944006F801808372
:100D800062E4CE010E944006F801818380E0DF9199
:100D9000CF911F910F91FF90EF90DF90CF9008952A
:100DA0002FB7F8948091710190917201A091730115
:100DB000B09174012FBF8C159D05AE05BF0578F26B
:100DC00083E0E5CF2F923F924F925F926F927F9296
:100DD0008F929F92AF92BF92CF92DF92EF92FF924B
:100DE0000F931F93CF93DF9300D0CDB7DEB73C01B5
:100DF000162F942E290180E0A114B10411F0F50101
:100E00008081382C329490EF3922380E40E062E035
:100E1000C3010E945E064FE768E0C3010E945E06C0
:100E200040E864E1C3010E945E06A201602FC30195
:100E30000E941106432D6AE1C3010E945E06412F04
:100E400062E0C3010E945E061C3051F46AE1C301F6
:100E50000E944006482F40686AE1C3010E945E0676
:100E60008FB7F89420907101309072014090730117
:100E7000509074018FBFF4E22F0E311C411C511CA5
:100E800068E0C3010E944006982F992109F0BFC075
:100E900080FF16C083E00F900F90DF91CF911F91DC
:100EA0000F91FF90EF90DF90CF90BF90AF909F9009
:100EB0008F907F906F905F904F903F902F9008950C
:100EC0002FB7F8948091710190917201A0917301F4
:100ED000B09174012FBF82159305A405B50580F26A
:100EE000D9CFE114F10409F467C0C114D10409F4A5
:100EF00063C064E1C3010E944006982EF601808120
:100F0000891508F47EC090829920C9F180E590E0AF
:100F10000E94C00360E0F30186850E9414059A9444
:100F200082E90E940A06882099F00FEF10E001C0C4
:100F3000000F8A94EAF782E90E940A06902F9095A2
:100F4000F701208192238023982B90838824839417
:100F50008701080D111D891440F482E90E940A06D8
:100F6000F80181938F018394F6CF80E00E940A06F6
:100F7000F801808361E0F30186850E94140568E131
:100F8000C3010E9440068770A114B10411F0F5015D
:100F9000808353FC38C0E114F104B9F1C114D104C9
:100FA000A1F19F89992389F1F6014081413031F403
:100FB000843029F58FEF6FCF80E0EBCF4230F8F02F
:100FC00081111DC042509E012F5F3F4FB701C301E9
:100FD0000E947B0681115FCFF6019081E90EF11C22
:100FE000F701329720819981291309C0F1E0EF1AA6
:100FF000F108F70120819A81291709F44CCF87E085
:101000004ACF84E048CF82E046CF80E044CF6CE016
:10101000C3010E944006582E837109F462CF81E01B
:101020003ACF8F92AF92BF92CF92DF92EF92FF9220
:101030000F9321E02F93812CB12CA12C6B017C010B
:1010400004E09C0140E36CE087E192E00E94E2064C
:101050000F900F91FF90EF90DF90CF90BF90AF90E7
:101060008F9008958F92AF92BF92CF92DF92EF92BE
:10107000FF920F93CF93DF93CDB7DEB72C970FB6C8
:10108000F894DEBF0FBECDBF90E699838A83FB0143
:10109000DE011396CB01069621912D93E817F907EF
:1010A000D9F7DA01EC91E350FF0BE40FF51FDE01F5
:1010B0001996CE010D9621912D93A817B907D9F74E
:1010C0001F92812CB12CA12CD12CC12CF12CE12C04
:1010D0000CE09E012F5F3F4F40E16EE087E192E020
:1010E0000E94E2060F902C960FB6F894DEBF0FBE5A
:1010F000CDBFDF91CF910F91FF90EF90DF90CF9018
:10110000BF90AF908F9008956F927F928F92AF9221
:10111000BF92CF92DF92EF92FF920F931F93CF93E4
:10112000DF9300D000D0CDB7DEB73C0180E58983E6
:101130001A829E012D5F3F4F42E0BE016F5F7F4FDD
:10114000C3010E947B06182F811118C01F92812CA9
:10115000B12CA12CD12CC12CF12CE12C04E09E014E
:101160002F5F3F4F40E36CE0C3010E94E2060F9007
:10117000833021F0182F811101C011E0812F0F90D1
:101180000F900F900F90DF91CF911F910F91FF90D3
:10119000EF90DF90CF90BF90AF908F907F906F9047
:1011A00008950F931F93CF93DF938C01D62FC42FF5
:1011B0000E944006C0954C2F48236D2FC801DF9137
:1011C000CF911F910F910C945E062F923F924F92F8
:1011D0005F926F927F928F929F92AF92BF92CF92C7
:1011E000DF92EF92FF920F931F93CF93DF93CDB7D0
:1011F000DEB72E970FB6F894DEBF0FBECDBF06E068
:10120000413508F046C14E873B012C0140E86CE1B6
:101210000E94D10883E989832E85222329F081E069
:10122000F3019081953008F480E0992493941C8612
:101230009C85990F990F990F1E85191B17FD10E0BA
:1012400032E0882319F098E89B8333E021E0912F66
:10125000977009F420E0912F959595959595290F14
:10126000D1F094E0811193E0291708F4922F2C8596
:10127000E22FF0E03196E60DF71D232F4191A1E01A
:10128000B0E0AC0FBD1FA20FB11D4C932F5F422FDA
:10129000431B491798F38111185F10320CF484C076
:1012A00080E78A838B819C8189279D8189279E8104
:1012B00089278F839E01285F3F4F47E0BE016F5F04
:1012C0007F4FC2010E947B06082F8111E2C01A865F
:1012D00093E09B871D87FE0137961F0109E08A84F2
:1012E000482D4295407F480D6AE1C2010E945E068A
:1012F0001F92CE010A965C01FE013B966F017101BF
:101300009E012F5F3F4F40E36CE0C2010E94E20666
:10131000082F0F90823009F065C06CE1C2010E9475
:10132000400685FDB6C08F7109F480E2282F30E0B9
:10133000412F110F550B421753070CF09EC0182F69
:10134000E22FE595E595E595EF5F922F977081E0A7
:1013500009F480E0E80F81E090E08C0F9D1F8E0F74
:10136000911DFC01215031092770332781E090E065
:1013700002C0880F991F2A95E2F79C018081822B79
:1013800080838BCF85E98983FE85FF2331F081E05F
:10139000F3019081983008F04BCF80E049CF87E986
:1013A0008983F6E0FC87F9CF912F97709A87812F78
:1013B0008595859585958E5F282F2295207F290F0D
:1013C0002A8301E0911101C000E0080F2224239438
:1013D000312C2C0E3D1E280E311CF9E0F81BFB872A
:1013E0001D877DCF811155C010E29D8590320CF490
:1013F00057CF8B81883809F042C083E093E02C8579
:10140000E22FF0E03196E60DF71D980FA1E0B0E075
:10141000AC0FBD1FA80FB11D2C9121938F5F8913B5
:10142000F5CF8B858C87833009F04DC08A8581117B
:101430004AC09E012D5F3F4F41E0B101C2010E94B1
:101440007B06082F811125C09B81F10181819813B2
:101450003CC09C818281981338C0808182FF12C079
:101460009394F2E09F1609F48DCF23E0921609F4CD
:1014700096CF81E0981609F4CDCE05E00AC082E04F
:1014800094E0BDCFF3018387892D880F980E939444
:101490009082802F2E960FB6F894DEBF0FBECDBF80
:1014A000DF91CF911F910F91FF90EF90DF90CF9040
:1014B000BF90AF909F908F907F906F905F904F9074
:1014C0003F902F90089501E0E4CF07E0E2CF4F92E4
:1014D0005F926F927F928F92AF92BF92CF92DF9284
:1014E000EF92FF920F93CF93DF9300D0CDB7DEB78B
:1014F0006A83F90160816230A8F139017A012C0117
:1015000040E86CE10E94D10887E089831F92812C1A
:10151000CE0101965C01630101E09E012E5F3F4F09
:1015200040E36CE0C2010E94E2060F90811109C005
:10153000F30180818230C1F481E09981911101C071
:1015400080E00F900F90DF91CF910F91FF90EF907F
:10155000DF90CF90BF90AF908F907F906F905F9013
:101560004F90089584E0EDCF81E0EBCF0F931F9370
:10157000CF93DF9300D01F92CDB7DEB78C0182E00E
:101580008B8340E064E2C8010E945E0640E066E2B0
:10159000C8010E945E0646E268E4C8010E945E0639
:1015A0009E012D5F3F4FAE014F5F5F4F66E2C80166
:1015B0000E94670A982F9D7F81E009F080E00F90DC
:1015C0000F900F90DF91CF911F910F910895FC0123
:1015D00001900020E9F73197AF01481B590BBC017E
:1015E0008AE791E00C94C30387E691E00C94E70A44
:1015F000CF93DF930E94B004EC010E94F40A8C0F99
:101600009D1FDF91CF9108958F929F92AF92BF92CD
:101610000F931F93CF93DF93CDB7DEB7A1970FB68C
:10162000F894DEBF0FBECDBF19A2423008F44AE0E5
:101630008E010F5D1F4F842E912CB12CA12CA50182
:1016400094010E946C12E62FB901CA01EA30F4F449
:10165000E05DD801EE938D01232B242B252B79F708
:1016600090E080E0109719F0CD010E94E70AA19662
:101670000FB6F894DEBF0FBECDBFDF91CF911F91A3
:101680000F91BF90AF909F908F900895E95CE1CF4C
:10169000462F682F70E090E080E00C94040BBC01B2
:1016A000990F880B990B4AE00C94040B8F92AF9220
:1016B000BF92CF92DF92EF92FF920F93CF93DF937F
:1016C000CDB7DEB764970FB6F894DEBF0FBECDBFBF
:1016D000062FE62EF12CA701BC01CE0101960E9437
:1016E000B41221E030E02C0F3D1F2E0D3F1D402F86
:1016F000BE016F5F7F4F87E192E00E947B06811100
:1017000023C082E18C8B1B8A0E5F1F92812CCE013D
:1017100043965C0101966C0143977C019C0140E378
:101720006CE087E192E00E94E2060F9081110CC00C
:101730008C898130D1F48B898430B9F481E099812E
:101740009A3009F480E0819564960FB6F894DEBF74
:101750000FBECDBFDF91CF910F91FF90EF90DF9043
:10176000CF90BF90AF908F90089581E0EDCF1F9202
:101770000F920FB60F9211242F933F934F935F93C5
:101780006F937F938F939F93AF93BF93EF93FF9349
:101790008AE791E00E944104FF91EF91BF91AF91E0
:1017A0009F918F917F916F915F914F913F912F9179
:1017B0000F900FBE0F901F9018951F920F920FB6AB
:1017C0000F9211242F938F939F93EF93FF93E091A8
:1017D0008A01F0918B018081E0919001F09191015B
:1017E00082FD1BC09081809193018F5F8F73209148
:1017F0009401821741F0E0919301F0E0E658FE4F2A
:10180000958F80939301FF91EF919F918F912F91ED
:101810000F900FBE0F901F9018958081F4CF1F92EC
:101820000F920FB60F9211242F933F938F939F9394
:10183000AF93BF938091710190917201A091730158
:10184000B09174013091700123E0230F2D3758F5CA
:101850000196A11DB11D2093700180937101909399
:101860007201A0937301B0937401809175019091FE
:101870007601A0917701B09178010196A11DB11D6B
:101880008093750190937601A0937701B0937801CE
:10189000BF91AF919F918F913F912F910F900FBE6C
:1018A0000F901F90189526E8230F0296A11DB11DD9
:1018B000D2CFEAE7F1E01382128288EE93E0A0E053
:1018C000B0E084839583A683B7838FE491E091830E
:1018D000808385EC90E09587848784EC90E09787FF
:1018E000868780EC90E0918B808B81EC90E0938BED
:1018F000828B82EC90E0958B848B86EC90E0978BCA
:10190000868B118E128E138E148EE7E1F2E081E643
:1019100091E0918380838AE0868789E087870895B4
:10192000CF93DF93CDB7DEB7C154D1090FB6F8948A
:10193000DEBF0FBECDBF789484B5826084BD84B510
:10194000816084BD85B5826085BD85B5816085BDBA
:1019500080916E00816080936E0010928100809172
:1019600081008260809381008091810081608093FA
:101970008100809180008160809380008091B1001F
:1019800084608093B1008091B00081608093B0004A
:1019900080917A00846080937A0080917A008260DE
:1019A00080937A0080917A00816080937A008091A0
:1019B0007A00806880937A001092C100E0918A01D9
:1019C000F0918B0182E08083E0918601F0918701A4
:1019D0001082E0918801F09189018FEC8083109250
:1019E0009201E0918E01F0918F0186E08083E09179
:1019F0008C01F0918D01808180618083E0918C0168
:101A0000F0918D01808188608083E0918C01F0915C
:101A10008D01808180688083E0918C01F0918D013F
:101A200080818F7D80831FB7F89480917901811127
:101A300027C0E6E8F1E08491EAE9F1E09491E82F2B
:101A4000F0E0EE0FFF1FE859FE4FA591B491EC9125
:101A5000E92321F461E08AE00E94140561E08AE054
:101A60000E9442058CB580618CBD8CB580648CBDB4
:101A700061E08DE00E94420561E08BE00E9442053A
:101A8000809179018F5F809379011FBF61E0809120
:101A900025020E94420561E0809125020E94140502
:101AA000809126028F3F09F4A8C060E00E944205A1
:101AB0002091260230E0F901EC55FE4F8491F901A6
:101AC000E057FE4F0491F901E458FE4F14911111B3
:101AD00085C061E0809126020E94420560E080910D
:101AE00026020E94140583E090E00197F1F761E07F
:101AF000809126020E94140562E370E080E090E08D
:101B00000E94980540E064E287E192E00E945E0650
:101B100040E066E287E192E00E945E0646E268E409
:101B200087E192E00E945E0640E864E587E192E08A
:101B30000E945E0649EA66E587E192E00E945E0641
:101B400043E068E587E192E00E945E0648EE6AE5C0
:101B500087E192E00E945E0640E46AE287E192E05B
:101B60000E945E064DE362E287E192E00E945E061B
:101B700068E287E192E00E944006982F93709330CC
:101B800039F0482F436068E287E192E00E945E06E8
:101B900088EB91E00E94F80A40900001509001010A
:101BA0006090020170900301E5E02E2E312C87E158
:101BB00092E00E94B60A811137C062E370E080E0D3
:101BC00090E00E94980580E090E0892B81F30E94CC
:101BD0002D04882361F30E940000E6CF81110E944A
:101BE000EB04E12FF0E0EE0FFF1FEE58FE4FA59142
:101BF000B491EC910E2309F46CCF4FE062E087E1E1
:101C000092E00E945E0613E062E370E080E090E004
:101C10000E94980562E087E192E00E94400684FFFE
:101C200071CF115089F76ECF87E192E00E94CA050B
:101C3000882309F4C2CF8FE197E00E94B00410E03E
:101C4000809119021817B8F4812F90E09C01295E49
:101C50003D4F7901F9018381803108F413C48AE68C
:101C600091E00E94E70A60E170E0F70183810E9441
:101C7000480B1F5FE5CF0E94F40A49AE5AAE6BAE27
:101C80007CAE86E0E4E0F1E0DE01D39601900D92B7
:101C90008A95E1F749E152E0BE016D5C7F4F81E03A
:101CA0000E943208182F882309F461C082ED93E066
:101CB000133009F0ECC387E192E00E94B60A81116B
:101CC0003CC08EE294E00E94F80A87E192E00E9414
:101CD000840887E192E00E94B60A882309F473CF52
:101CE00087E192E00E94CA0522968FAF229788234F
:101CF00009F469CF82EF96E00E94F80A8CEA96E038
:101D00000E94B004F12C80911902F81608F023C14A
:101D10000F2D10E0095E1D4FF8018381803108F01E
:101D200017C189EA96E00E94B00460E170E0F80112
:101D300083810E94480BF394E6CF87E192E00E94F2
:101D4000CA05882309F4BDCF49E152E0BE016D5CAC
:101D50007F4F81E00E943208182F882341F08EEED9
:101D600093E00E94F80A812F0E94DA05ACCF82E14D
:101D700021968FAF219780E389A31AA29E012D5D42
:101D80003F4F42E0BE016F5D7F4F87E192E00E94CE
:101D90007B06182F81110AC0BE01605C7F4FCE0107
:101DA00081960E941108182F882361F08BEB93E035
:101DB0000E94B004812F0E94DA050E94F80A83E88D
:101DC00093E081CF99AD99A33AAD3AA38BAD8BA3A4
:101DD0002CAD2CA38327822789278DA348E060E1BF
:101DE00087E192E00E94D10887E192E00E94840896
:101DF00080E48FAF87E08EAF80E28DAF1F92812CA1
:101E00009E01225C3F4F5901BE01635C7F4F6B0115
:101E1000CE0101967C0101E02F5F3F4F40E36CE073
:101E200087E192E00E94E206182F0F90882381F04C
:101E30008DEE92E00E94F80A80EE92E00E94B004DB
:101E4000812F0E94DA050E94F80A8FE593E03BCFCC
:101E50008DAD813019F489818A30B9F084EB92E03C
:101E60000E94B00460E170E089810E94480B81EB20
:101E700092E00E94B0046AE070E08EAD0E94480BD0
:101E800082EA92E00E94B004E0CF83E48FAF88E062
:101E90008EAF1F92812CFE01FE965F019E01235C96
:101EA0003F4F6901BE016F5F7F4F7B0101E02E5FF5
:101EB0003F4F40E36CE087E192E00E94E206182F7A
:101EC0000F90882339F088E592E00E94F80A8BE4AD
:101ED00092E0B4CF8DAD813031F589818A3019F52A
:101EE00080EA89831A8262E0CE0101960E94560B35
:101EF000182F8111CAC260E1CE0181960E94560B53
:101F0000182F8111C2C282E08DAF9E01235C3F4F2A
:101F1000AE014F5F5F4F62E587E192E00E94670A82
:101F200088E097E0D0CE8FE192E00E94B00460E1BB
:101F300070E089810E94480B8CE192E00E94B0041D
:101F40006AE070E08EAD0E94480B8DE092E09ACF7F
:101F500087EA96E0E8CE0E94F40A8CE996E00E94B7
:101F6000B00480912402803120F48AE996E00E9436
:101F7000B00460E170E0809124020E94480B0E944E
:101F8000F40AE0912402EF7710E0E13420F4F0E06D
:101F9000E65FFE4F10818EE896E00E94B00485E176
:101FA00096E01530A9F098F582E496E0123081F0C1
:101FB00038F48AE696E0113059F089E995E008C0D6
:101FC0008BE296E0133021F080E296E01430A9F71E
:101FD0000E94F80AE0912402EF77E13408F0A0C0F3
:101FE000F0E0E65FFE4F9081EFEFE90FE93008F097
:101FF00097C0F0E0E250F04F0C948E123F123F1267
:102000001E101E101E10D5113F123F123F1288EDF8
:1020100095E01830E9F248F483EF95E01630C1F20C
:1020200087EE95E01730A1F2C8CF89EC95E0193022
:1020300079F286EA95E01F3F59F2BFCF8FEF89A36F
:102040008AA38BA38CA38DA38EA310E1943021F0DF
:1020500015E0953009F418E28CE495E00E94F80A46
:10206000115010320CF067C0B12EBB0CBB0C74E0E9
:10207000A72E0FEF0A0D2296DFAC2297912CF02E9F
:10208000FB0C89E395E0DD2079F088E495E01A30D7
:1020900014F085E495E00E94B0046AE070E0812FBE
:1020A0000E94480B81E495E00E94B004F9E085E3CA
:1020B00095E0FF1538F423E682E395E02F1510F440
:1020C00080E395E00E94B0046AE070E08F2D0E94EA
:1020D000480B8DE295E00E94B004DD20A9F149E1B2
:1020E00052E0BE016F5D7F4F8B2D0E943208E82EBB
:1020F000882351F181E195E00E94B0048E2D0E9469
:10210000DA050E94F80A115008F0ABCF87E192E09F
:102110000E94840848E060E187E192E00E94D108D3
:102120000E94F40A87E192E00E94840860ED77E063
:1021300080E090E046CD88E0810FB82EB29450EF59
:10214000B52260E1A62E95CF32E13DAF60E3698311
:10215000FA829E012D5F3F4F42E0BE016F5F7F4FCD
:1021600087E192E00E947B06F82E81110AC0BE0131
:10217000635C7F4FCE0101960E941108F82E8823E0
:1021800069F08AEF94E00E94B0048F2D0E94DA0576
:102190000E94F80A015008F072CFB5CFCE01019627
:1021A0007C01812CF70181917F01803108F0C1C051
:1021B00087EF94E00E94B00460E170E0F70131978E
:1021C00080810E94480B882D8370833021F483EF37
:1021D00094E00E94B0048394F0E18F12E3CFDD20FD
:1021E00009F46BC0A8858A2F90E0FC0124E0F595E6
:1021F000E7952A95E1F72985322F3F70932E30E03D
:10220000790144E0F594E7944A95E1F76F81492D0F
:1022100050E0762F70957F707E171F0699F470E05E
:10222000B4E075956795BA95E1F7BFE06B27641741
:10223000750741F4A095AF70DD24D394AE151F044B
:1022400009F4D12CBF01660F771F660F771F6470EA
:10225000DA01AA0FBB1FA270A62B6E2D6170E62EAD
:10226000EA2AEBAA25FB662760F9792D7270972E72
:10227000962ABF01660F771F647069296CAB26FB35
:10228000662760F9E470E62BBA0175956795627070
:10229000E62BEDABB5E095958795BA95E1F784709F
:1022A000220F232F221F330B822B559547955595CF
:1022B00047954270842B8EAB9D2C84E0A816E1F1EB
:1022C000802F65E00E944A12833009F46BC0D82E3B
:1022D000282F880F330B802F002E000C990B0196AE
:1022E000B1010E9458122617370739F5E3E3F0E0F1
:1022F000EC0FFD1FED0DF11D8081813019F086304E
:1023000009F04CC0C980DA80EB80FC8087EB94E058
:102310000E94B00440E1C701B6010E94040B8FEA9D
:1023200094E00E94B00460E170E08D850E94480B4B
:1023300035C085EF94E03ECFD02E8FEE94E00E9422
:10234000B004E3E3F0E0EC0FFD1FED0DF11D808024
:1023500082FA882780F990E00E944F0B8DEE94E07E
:102360000E94B00481FA882780F990E00E944F0B08
:102370008BEE94E00E94B004882D817090E00E9462
:102380004F0B87EE94E00E94B004992021F081EC7D
:1023900094E00E94B00493E0D912A8CF0E94F40AFE
:1023A000D12CF8CE43E0D42EC8CF8EE994E00E9421
:1023B000F80AD12C22E1B22E30E3A32EB9A2A982D1
:1023C000DA829E012D5F3F4F42E0BE016F5F7F4F7B
:1023D00087E192E00E947B06182F81110AC0BE019E
:1023E0006F5D7F4FCE0101960E941108182F882340
:1023F00051F087E894E00E94B004812F0E94DA0532
:102400000E94F80A8DCE8E010F5F1F4F94E0992E27
:102410009D0CB9E084E894E0BD1510F482E894E0E6
:102420000E94B0046AE070E08D2D0E94480B8FE797
:1024300094E00E94B004780184E0C82EF7018191F5
:102440007F018031C8F48CE794E00E94B00460E121
:1024500070E0F701319780810E94480BCA94C11047
:10246000EDCF0E94F40AD3940C5F1F4FD910D1CF47
:10247000F0E1DF12A3CF54CE8AE794E0E6CF86EBFB
:1024800096E0BECF8CE691E0ECCB87E493E00E942F
:10249000B00469CC87FB082E062687FD819567FD71
:1024A00061950E9494120EF4919507FC8195089510
:1024B00097FB072E16F4009407D077FD09D00E94F1
:1024C000A01207FC05D03EF4909581959F4F08958A
:1024D000709561957F4F0895A1E21A2EAA1BBB1B30
:1024E000FD010DC0AA1FBB1FEE1FFF1FA217B307E0
:1024F000E407F50720F0A21BB30BE40BF50B661FF6
:10250000771F881F991F1A9469F7609570958095B9
:1025100090959B01AC01BD01CF010895EE0FFF1F07
:102520000590F491E02D0994991B79E004C0991F5E
:10253000961708F0961B881F7A95C9F7809508951D
:10254000AA1BBB1B51E107C0AA1FBB1FA617B707D9
:1025500010F0A61BB70B881F991F5A95A9F78095F5
:102560009095BC01CD010895FB01DC0102C00190F2
:0E2570000D9241505040D8F70895F894FFCFD7
:10257E00DEADBEEFFFFFFFFFFFFF06090000FF000D
:10258E000000040300000000000007070000000028
:10259E000000050000000000000001000000000027
:1025AE00000000000000000000000000000000001D
:1025BE0000000000000000000000020000000063A8
:1025CE0004C303F003CB042104FF03130400000033
:1025DE0000E508B60ACA050D0A00200020300000EA
:00000001FF
