:100000000C941F020C9447020C9447020C94470274
:100010000C9447020C9447020C9447020C9447023C
:100020000C9447020C9447020C9447020C9447022C
:100030000C9447020C9447020C9447020C9447021C
:100040000C94E20A0C9447020C94520B0C942C0B67
:100050000C9447020C9447020C9447020C944702FC
:100060000C9447020C944702556E6B6E6F776E20AE
:100070006572726F720041204D49464152452050D1
:1000800049434320726573706F6E646564207769BD
:100090007468204E414B2E00546865204352435FE4
:1000A0004120646F6573206E6F74206D61746368A6
:1000B0002E00496E76616C696420617267756D65AA
:1000C0006E742E00496E7465726E616C206572727A
:1000D0006F7220696E2074686520636F64652E20DE
:1000E00053686F756C64206E6F7420686170706502
:1000F0006E2E004120627566666572206973206EFF
:100100006F742062696720656E6F7567682E005492
:10011000696D656F757420696E20636F6D6D756EA6
:1001200069636174696F6E2E00436F6C6C697369EB
:100130006F6E2064657465637465642E0045727229
:100140006F7220696E20636F6D6D756E6963617487
:10015000696F6E2E00537563636573732E00000024
:1001600000002300260029002076616C696420626B
:10017000697473290D0A00202800476F742062619A
:100180006420726573706F6E7365206F6E2062619C
:10019000636B646F6F72203078343320636F6D6DE2
:1001A000616E643A20004572726F72206E616D65F7
:1001B0003A20004572726F7220696E20636F6D6D18
:1001C000756E69636174696F6E20617420636F6D11
:1001D0006D616E6420307834332C206166746572F2
:1001E000207375636365737366756C6C79206578CD
:1001F00065637574696E67203078343000207661ED
:100200006C69642062697473290D0A002028004714
:100210006F742062616420726573706F6E73652005
:100220006F6E206261636B646F6F72203078343060
:1002300020636F6D6D616E643A20004572726F725B
:10024000206E616D653A20004361726420646964C8
:10025000206E6F7420726573706F6E6420746F20EF
:10026000307834302061667465722048414C5420E7
:10027000636F6D6D616E642E2041726520796F75BC
:100280002073757265206974206973206120554957
:1002900044206368616E676561626C65206F6E659E
:1002A0003F004D49464152455F57726974652829A0
:1002B000206661696C65643A200041637469766107
:1002C00074696E67207468652055494420626163D3
:1002D0006B646F6F72206661696C65642E00417299
:1002E0006520796F75207375726520796F7572203E
:1002F0004B4559204120666F7220736563746F729D
:1003000020302069732030784646464646464646A9
:10031000464646463F004D49464152455F5265615B
:10032000642829206661696C65643A200050434462
:100330005F41757468656E7469636174652829200E
:100340006661696C65643A20004661696C65642089
:10035000746F2061757468656E746963617465207B
:10036000746F206361726420666F722072656164CD
:10037000696E672C20636F756C64206E6F742073D8
:100380006574205549443A20004E6F2063617264C1
:10039000207761732070726576696F75736C792050
:1003A00073656C65637465642C20616E64206E6F88
:1003B0006E652061726520617661696C61626C6551
:1003C0002E204661696C656420746F20736574200B
:1003D0005549442E0057726F7465206E657720551D
:1003E000494420746F20636172642E000000000095
:1003F000240027002A0000000000250028002B0010
:1004000004040404040404040202020202020303BA
:1004100003030303010204081020408001020408C2
:100420001020010204081020000000080002010052
:10043000000304070000000000000000840B1124EA
:100440001FBECFEFD8E0DEBFCDBF22E0AEE2B1E00D
:1004500001C01D92A231B207E1F711E0A0E0B1E0C6
:10046000ECE8F5E202C005900D92AE32B107D9F783
:1004700012E0CFE1D2E004C02197FE010E94CC102F
:10048000CE31D107C9F70E94BB0B0C94C4120C9457
:1004900000008CBD9DBD0895833081F028F481302B
:1004A00099F08230A9F008958730A9F08830C9F01A
:1004B0008430B1F4809180008F7D03C080918000F2
:1004C0008F7780938000089584B58F7784BD0895D9
:1004D00084B58F7DFBCF8091B0008F778093B00083
:1004E00008958091B0008F7DF9CF1F93CF93DF9354
:1004F000282F30E0F901E85DFB4F8491F901EC5EB3
:10050000FB4FD491F901E050FC4FC491CC23A9F0EA
:10051000162F81110E944C02EC2FF0E0EE0FFF1F0E
:10052000EA50FC4FA591B4918FB7F894EC9111115A
:1005300008C0D095DE23DC938FBFDF91CF911F9150
:100540000895DE2BF8CFCF93DF9390E0FC01EC5EB3
:10055000FB4F249180509C4FFC0184918823D1F063
:1005600090E0880F991FFC01E451FC4FA591B491D4
:10057000FC01EA50FC4FC591D49161110EC09FB7A8
:10058000F8948C91E22FE0958E238C932881E223BE
:10059000E8839FBFDF91CF9108958FB7F894EC91D6
:1005A000E22BEC938FBFF6CF3FB7F89480915D01BB
:1005B00090915E01A0915F01B091600126B5A89B6A
:1005C00005C02F3F19F00196A11DB11D3FBFBA2FE5
:1005D000A92F982F8827BC01CD01620F711D811DA5
:1005E000911D42E0660F771F881F991F4A95D1F72A
:1005F00008958F929F92AF92BF92CF92DF92EF9227
:10060000FF924B015C010E94D4026B017C010E94AD
:10061000D4026C197D098E099F09683E73408105DB
:100620009105A8F321E0821A9108A108B10888EE8B
:10063000C80E83E0D81EE11CF11C81149104A104B2
:10064000B10429F7FF90EF90DF90CF90BF90AF906B
:100650009F908F9008952FB7F894609159017091F1
:100660005A0180915B0190915C012FBF0895AF9278
:10067000BF92CF92DF92EF92FF920F931F93CF938F
:10068000DF936C017B018B01040F151FEB015E01F1
:10069000AE18BF08C017D10759F06991D601ED9186
:1006A000FC910190F081E02DC6010995892B79F725
:1006B000C501DF91CF911F910F91FF90EF90DF90D7
:1006C000CF90BF90AF900895FC01538D448D252F9E
:1006D00030E0842F90E0821B930B541710F0CF96DC
:1006E000089501970895FC01918D828D981761F00E
:1006F000A28DAE0FBF2FB11D5D968C91928D9F5F25
:100700009F73928F90E008958FEF9FEF08950F935E
:100710001F930E942B036093690170936A01809379
:100720006B0190936C0181E691E00E94730397FF47
:100730001DC00E942B030091690110916A01209154
:100740006B0130916C01601B710B820B930B00915C
:100750006501109166012091670130916801601771
:10076000710782079307F8F28FEF9FEF1F910F91A8
:100770000895FC01918D828D981731F0828DE80FDC
:10078000F11D858D90E008958FEF9FEF08950F93F1
:100790001F930E942B036093690170936A018093F9
:1007A0006B0190936C0181E691E00E94B90397FF81
:1007B0001DC00E942B030091690110916A012091D4
:1007C0006B0130916C01601B710B820B930B0091DC
:1007D00065011091660120916701309168016017F1
:1007E000710782079307F8F28FEF9FEF1F910F9128
:1007F0000895CF92DF92EF92FF92CF930E94C703AA
:10080000FC0197FD4EC08D32910521F0C0970A97EB
:1008100008F040C0C12CD12C7601C0E0E130F105D8
:10082000D1F0ED32F105D9F1CF01C0970A9798F4D4
:10083000AAE0B0E0A70196010E9459106F01FF0FD6
:10084000EE08FF08C60ED71EE81EF91E80E3C81A80
:10085000D108E108F10881E691E00E9473030E944B
:10086000C703FC01C0970A97C8F2E130F105B1F265
:10087000CC2341F0F094E094D094C094C11CD11CDE
:10088000E11CF11CC701B601CF91FF90EF90DF9002
:10089000CF90089581E691E00E947303AFCFC1E04D
:1008A000DACFC12CD12C7601EDCFFC01918D228DB8
:1008B000892F90E0805C9F4F821B91098F7399274D
:1008C000089581E691E00E94550421E0892B09F406
:1008D00020E0822F089580E090E0892B29F00E948B
:1008E000610481110C9400000895FC01A48DA80FEF
:1008F000B92FB11DA35ABF4F2C91848D90E0019662
:100900008F739927848FA689B7892C93A089B18981
:100910008C91837080648C93938D848D981306C022
:100920000288F389E02D80818F7D80830895EF9286
:10093000FF920F931F93CF93DF93EC0181E0888F99
:100940009B8D8C8D98131AC0E889F989808185FF69
:1009500015C09FB7F894EE89FF896083E889F9890B
:1009600080818370806480839FBF81E090E0DF910D
:10097000CF911F910F91FF90EF900895F62E0B8D60
:1009800010E00F5F1F4F0F731127E02E8C8D8E111B
:100990000CC00FB607FCFACFE889F989808185FF82
:1009A000F5CFCE010E947504F1CFEB8DEC0FFD2F3A
:1009B000F11DE35AFF4FF0829FB7F8940B8FEA893D
:1009C000FB8980818062CFCF0F931F93CF93DF93FA
:1009D0008C01D0E0C0E0F801EC0FFD1F64916623AC
:1009E00041F081E691E00E949704892B11F0219655
:1009F000F2CFCE01DF91CF911F910F910895CF9348
:100A0000DF93EC01888D8823B9F0AA89BB89E88936
:100A1000F9898C9185FD03C0808186FD0DC00FB6DC
:100A200007FCF7CF8C9185FFF2CF808185FFEDCF5A
:100A3000CE010E947504E9CFDF91CF910895BC01EA
:100A40006E5F7F4FDC01ED91FC910190F081E02D14
:100A500040E0099591E0811190E0892F089584305C
:100A6000F1F050F4813091F030F1823091F0833028
:100A700099F088E690E008958630B9F098F08730D4
:100A8000B9F08F3FB1F786E790E008958DE391E0EC
:100A9000089589E291E008958FE091E0089583EF51
:100AA00090E0089584EC90E0089582EB90E0089542
:100AB00088E990E0089585E591E0089508958EBD58
:100AC00000000DB407FEFDCF8EB50895DF92EF92C2
:100AD000FF920F931F93CF93DF937C01062FD42EA9
:100AE000152F80E590E00E94490260E0F7018685BD
:100AF0000E94750282E10E945F05CD2DD12F0C0F5F
:100B00001D2F111DC017D10721F089910E945F058B
:100B1000F9CF61E0F7018685DF91CF911F910F91A9
:100B2000FF90EF90DF900C9475021F93CF93DF93AB
:100B3000EC01162F80E590E00E94490260E08E856E
:100B40000E947502812F80680E945F0580E00E94EC
:100B50005F05182F61E08E850E947502812FDF915D
:100B6000CF911F9108950F931F93CF93DF93EC01C3
:100B7000062F142F80E590E00E94490260E08E85E8
:100B80000E947502802F0E945F05812F0E945F05E1
:100B900061E08E85DF91CF911F910F910C947502CA
:100BA000CF92DF92EF92FF920F931F93CF93DF9339
:100BB000EC016B01F42E890140E062E00E94B30574
:100BC00044E06AE0CE010E94B30540E864E1CE0152
:100BD0000E94B305A6016F2DCE010E94660543E079
:100BE00062E0CE010E94B3050E942B036B017C01E1
:100BF00029E5C20ED11CE11CF11C6AE0CE010E9465
:100C0000950582FF1BC040E062E0CE010E94B30563
:100C100064E4CE010E949505F801808362E4CE0170
:100C20000E949505F801818380E0DF91CF911F91AB
:100C30000F91FF90EF90DF90CF9008950E942B03CB
:100C40006C157D058E059F05C0F283E0EECF2F92D7
:100C50003F924F925F926F927F928F929F92AF924C
:100C6000BF92CF92DF92EF92FF920F931F93CF9399
:100C7000DF9300D0CDB7DEB73C01162F942E2901AB
:100C800080E0A114B10411F0F5018081382C329478
:100C900090EF3922380E40E062E0C3010E94B305B4
:100CA0004FE768E0C3010E94B30540E864E1C30177
:100CB0000E94B305A201602FC3010E946605432D67
:100CC0006AE1C3010E94B305412F62E0C3010E94A3
:100CD000B3051C3051F46AE1C3010E949505482F09
:100CE00040686AE1C3010E94B3050E942B031B0107
:100CF0002C01F4E22F0E311C411C511C68E0C30191
:100D00000E949505982F992109F0B6C080FF16C062
:100D100083E00F900F90DF91CF911F910F91FF9083
:100D2000EF90DF90CF90BF90AF909F908F907F908B
:100D30006F905F904F903F902F9008950E942B03EB
:100D40006215730584059505C8F2E2CFE114F1043C
:100D500009F467C0C114D10409F463C064E1C3019C
:100D60000E949505982EF6018081891508F47EC0B1
:100D700090829920C9F180E590E00E94490260E0EC
:100D8000F30186850E9475029A9482E90E945F05AC
:100D9000882099F00FEF10E001C0000F8A94EAF765
:100DA00082E90E945F05902F9095F70120819223A0
:100DB0008023982B9083882483948701080D111D2C
:100DC000891440F482E90E945F05F80181938F0144
:100DD0008394F6CF80E00E945F05F801808361E094
:100DE000F30186850E94750268E1C3010E949505A2
:100DF0008770A114B10411F0F501808353FC38C051
:100E0000E114F104B9F1C114D104A1F19F8999232E
:100E100089F1F6014081413031F4843029F58FEFBA
:100E200078CF80E0EBCF4230F8F081111DC0425006
:100E30009E012F5F3F4FB701C3010E94D005811172
:100E400068CFF6019081E90EF11CF70132972081FD
:100E50009981291309C0F1E0EF1AF108F701208107
:100E60009A81291709F455CF87E053CF84E051CFF9
:100E700082E04FCF80E04DCF6CE0C3010E9495052A
:100E8000582E837109F462CF81E043CF8F92AF92E5
:100E9000BF92CF92DF92EF92FF920F93CF93DF93A7
:100EA000CDB7DEB72C970FB6F894DEBF0FBECDBF1F
:100EB00089836A83FA01DE011396CA01069641917D
:100EC0004D93E817F907D9F7D901EC91E350FF0BDF
:100ED000E20FF31FDE011996CE010D9621912D939D
:100EE000A817B907D9F71F92812CB12CA12CD12CAE
:100EF000C12CF12CE12C0CE09E012F5F3F4F40E113
:100F00006EE08EEF91E00E9427060F902C960FB6B0
:100F1000F894DEBF0FBECDBFDF91CF910F91FF9050
:100F2000EF90DF90CF90BF90AF908F9008956F9229
:100F30007F928F92AF92BF92CF92DF92EF92FF9209
:100F40000F931F93CF93DF9300D000D0CDB7DEB7C0
:100F50003C0180E589831A829E012D5F3F4F42E06C
:100F6000BE016F5F7F4FC3010E94D005182F811112
:100F700018C01F92812CB12CA12CD12CC12CF12C8A
:100F8000E12C04E09E012F5F3F4F40E36CE0C30182
:100F90000E9427060F90833021F0182F811101C085
:100FA00011E0812F0F900F900F900F90DF91CF9154
:100FB0001F910F91FF90EF90DF90CF90BF90AF9077
:100FC0008F907F906F9008950F931F93CF93DF932F
:100FD0008C01D62FC42F0E949505C0954C2F482315
:100FE0006D2FC801DF91CF911F910F910C94B30524
:100FF0002F923F924F925F926F927F928F929F9229
:10100000AF92BF92CF92DF92EF92FF920F931F9316
:10101000CF93DF93CDB7DEB72E970FB6F894DEBF30
:101020000FBECDBF06E0413508F046C14E873B01FB
:101030002C0140E86CE10E94E40783E989832E8556
:10104000222329F081E0F3019081953008F480E0BB
:10105000992493941C869C85990F990F990F1E854E
:10106000191B17FD10E032E0882319F098E89B83E4
:1010700033E021E0912F977009F420E0912F9595AE
:1010800095959595290FD1F094E0811193E029175A
:1010900008F4922F2C85E22FF0E03196E60DF71D33
:1010A000232F4191A1E0B0E0AC0FBD1FA20FB11DF5
:1010B0004C932F5F422F431B491798F38111185F00
:1010C00010320CF484C080E78A838B819C8189274D
:1010D0009D8189279E8189278F839E01285F3F4FAD
:1010E00047E0BE016F5F7F4FC2010E94D005082F0D
:1010F0008111E2C01A8693E09B871D87FE01379617
:101100001F0109E08A84482D4295407F480D6AE11D
:10111000C2010E94B3051F92CE010A965C01FE0136
:101120003B966F0171019E012F5F3F4F40E36CE0E2
:10113000C2010E942706082F0F90823009F065C077
:101140006CE1C2010E94950585FDB6C08F7109F45E
:1011500080E2282F30E0412F110F550B4217530723
:101160000CF09EC0182FE22FE595E595E595EF5F11
:10117000922F977081E009F480E0E80F81E090E021
:101180008C0F9D1F8E0F911DFC012150310927707E
:10119000332781E090E002C0880F991F2A95E2F77B
:1011A0009C018081822B80838BCF85E98983FE859A
:1011B000FF2331F081E0F3019081983008F04BCFAC
:1011C00080E049CF87E98983F6E0FC87F9CF912F4A
:1011D00097709A87812F8595859585958E5F282FA5
:1011E0002295207F290F2A8301E0911101C000E0A0
:1011F000080F22242394312C2C0E3D1E280E311C66
:10120000F9E0F81BFB871D877DCF811155C010E2E7
:101210009D8590320CF457CF8B81883809F042C0FD
:1012200083E093E02C85E22FF0E03196E60DF71D88
:10123000980FA1E0B0E0AC0FBD1FA80FB11D2C911D
:1012400021938F5F8913F5CF8B858C87833009F0CD
:101250004DC08A8581114AC09E012D5F3F4F41E0FC
:10126000B101C2010E94D005082F811125C09B81C8
:10127000F101818198133CC09C818281981338C010
:10128000808182FF12C09394F2E09F1609F48DCF03
:1012900023E0921609F496CF81E0981609F4CDCE9A
:1012A00005E00AC082E094E0BDCFF3018387892D79
:1012B000880F980E93949082802F2E960FB6F894F4
:1012C000DEBF0FBECDBFDF91CF911F910F91FF9079
:1012D000EF90DF90CF90BF90AF909F908F907F90D6
:1012E0006F905F904F903F902F90089501E0E4CF72
:1012F00007E0E2CF4F925F926F927F928F92AF9210
:10130000BF92CF92DF92EF92FF920F93CF93DF9332
:1013100000D0CDB7DEB76A83F90160816230A8F1F1
:1013200039017A012C0140E86CE10E94E40787E072
:1013300089831F92812CCE0101965C01630101E03B
:101340009E012E5F3F4F40E36CE0C2010E942706E2
:101350000F90811109C0F30180818230C1F481E0D6
:101360009981911101C080E00F900F90DF91CF9192
:101370000F91FF90EF90DF90CF90BF90AF908F9044
:101380007F906F905F904F90089584E0EDCF81E063
:10139000EBCF0F931F93CF93DF9300D01F92CDB766
:1013A000DEB78C0182E08B8340E064E2C8010E94DA
:1013B000B30540E066E2C8010E94B30546E268E476
:1013C000C8010E94B3059E012D5F3F4FAE014F5FE4
:1013D0005F4F66E2C8010E947A09982F9D7F81E0E5
:1013E00009F080E00F900F900F90DF91CF911F9147
:1013F0000F910895FC0101900020E9F73197AF01AA
:10140000481B590BBC0181E691E00C9437038F9285
:101410009F92AF92BF920F931F93CF93DF93CDB75D
:10142000DEB7A1970FB6F894DEBF0FBECDBF19A2ED
:10143000423008F44AE08E010F5D1F4F842E912C3C
:10144000B12CA12CA50194010E94AA10E62FB9018C
:10145000CA01EA30F4F4E05DD801EE938D01232B4C
:10146000242B252B79F790E080E0109719F0CD011F
:101470000E94FA09A1960FB6F894DEBF0FBECDBF49
:10148000DF91CF911F910F91BF90AF909F908F9060
:101490000895E95CE1CFCF93DF930E94E404EC016F
:1014A00089E291E00E94FA098C0F9D1FDF91CF9194
:1014B00008958F92AF92BF92CF92DF92EF92FF92F8
:1014C0000F93CF93DF93CDB7DEB764970FB6F89441
:1014D000DEBF0FBECDBF062FE62EF12CA701BC014B
:1014E000CE0101960E94B41221E030E02C0F3D1F86
:1014F0002E0D3F1D402FBE016F5F7F4F8EEF91E09D
:101500000E94D005811123C082E18C8B1B8A0E5F63
:101510001F92812CCE0143965C0101966C0143978A
:101520007C019C0140E36CE08EEF91E00E94270675
:101530000F9081110CC08C898130D1F48B8984305B
:10154000B9F481E099819A3009F480E0819564963C
:101550000FB6F894DEBF0FBECDBFDF91CF910F91D4
:10156000FF90EF90DF90CF90BF90AF908F90089555
:1015700081E0EDCF0F931F93CF93DF93EC01888130
:101580009981009759F02A813B812617370730F05F
:1015900081E0DF91CF911F910F9108958B016F5FD3
:1015A0007F4F0E94F711009759F0998388831B831E
:1015B0000A832C813D81232B59F7FC011082E8CF4F
:1015C00080E0E7CF1F920F920FB60F9211242F9356
:1015D0003F938F939F93AF93BF93809159019091C5
:1015E0005A01A0915B01B0915C013091580123E058
:1015F000230F2D3758F50196A11DB11D20935801D9
:101600008093590190935A01A0935B01B0935C01C0
:1016100080915D0190915E01A0915F01B0916001A8
:101620000196A11DB11D80935D0190935E01A09371
:101630005F01B0936001BF91AF919F918F913F91F6
:101640002F910F900FBE0F901F90189526E8230F33
:101650000296A11DB11DD2CF1F920F920FB60F920D
:1016600011242F933F934F935F936F937F938F93A7
:101670009F93AF93BF93EF93FF9381E691E00E9416
:101680007504FF91EF91BF91AF919F918F917F91E1
:101690006F915F914F913F912F910F900FBE0F90DF
:1016A0001F9018951F920F920FB60F9211242F932F
:1016B0008F939F93EF93FF93E0917101F0917201EB
:1016C0008081E0917701F091780182FD1BC09081CB
:1016D00080917A018F5F8F7320917B01821741F097
:1016E000E0917A01F0E0EF59FE4F958F80937A01F7
:1016F000FF91EF919F918F912F910F900FBE0F90BF
:101700001F9018958081F4CFE1E6F1E013821282F8
:1017100088EE93E0A0E0B0E084839583A683B7834E
:1017200081E191E09183808385EC90E095878487C7
:1017300084EC90E09787868780EC90E0918B808B9B
:1017400081EC90E0938B828B82EC90E0958B848B84
:1017500086EC90E0978B868B118E128E138E148EF2
:10176000EEEFF1E083E291E0918380838AE0868767
:1017700089E087870895CF93DF93CDB7DEB7C05454
:10178000D1090FB6F894DEBF0FBECDBF789484B5F3
:10179000826084BD84B5816084BD85B5826085BD6D
:1017A00085B5816085BD80916E00816080936E00FB
:1017B00010928100809181008260809381008091ED
:1017C000810081608093810080918000816080939E
:1017D00080008091B10084608093B1008091B0005E
:1017E00081608093B00080917A00846080937A0059
:1017F00080917A00826080937A0080917A00816083
:1018000080937A0080917A00806880937A001092A9
:10181000C100E0917101F091720182E08083E0915A
:101820006D01F0916E011082E0916F01F0917001F5
:101830008FEC808310927901E0917501F09176012F
:1018400086E08083E0917301F09174018081806172
:101850008083E0917301F0917401808188608083BE
:10186000E0917301F0917401808180688083E09140
:101870007301F091740180818F7D80831FB7F8948C
:1018800080912E01811127C0EAE0F4E08491EEE11D
:10189000F4E09491E82FF0E0EE0FFF1FE451FC4FCD
:1018A000A591B491EC91E92321F461E08AE00E94D2
:1018B000750261E08AE00E94A3028CB580618CBD54
:1018C0008CB580648CBD61E08DE00E94A30261E074
:1018D0008BE00E94A30280912E018F5F80932E01E6
:1018E0001FBF61E080910C020E94A30261E0809121
:1018F0000C020E94750280910D028F3F09F4CEC048
:1019000060E00E94A30220910D0230E0F901E85D41
:10191000FB4F8491F901EC5EFB4F9490F901E0508C
:10192000FC4F14911111ABC061E080910D020E9437
:10193000A30260E080910D020E94750283E090E0B6
:101940000197F1F761E080910D020E94750262E358
:1019500070E080E090E00E94F90240E064E28EEFE7
:1019600091E00E94B30540E066E28EEF91E00E94B4
:10197000B30546E268E48EEF91E00E94B30540E8CB
:1019800064E58EEF91E00E94B30549EA66E58EEFCB
:1019900091E00E94B30543E068E58EEF91E00E947C
:1019A000B30548EE6AE58EEF91E00E94B30540E48E
:1019B0006AE28EEF91E00E94B3054DE362E28EEFA2
:1019C00091E00E94B30568E28EEF91E00E949505D8
:1019D000982F9370933039F0482F436068E28EEF70
:1019E00091E00E94B3058FEF809340018093410105
:1019F0008093420180934301809344018093450189
:101A00001FEF40E3742E6624639481E691E00E9408
:101A10005504892B09F43AC381E691E00E947303CF
:101A2000803309F052C08EEF91E00E94C9098823EB
:101A300009F427C38EEF91E00E941F05882309F463
:101A400020C33EEF832E31E0932EC4018E5F914080
:101A50002FEF821A920A209100022817190609F026
:101A60000CF40FC3F401628170E090E080E04AE082
:101A70000E94070A8CE291E00E94FA09E6CF8111E8
:101A80000E944C02E12FF0E0EE0FFF1FE25AFE4FE2
:101A9000A591B491EC919E2209F446CF4FE062E00B
:101AA0008EEF91E00E94B30513E062E370E080E006
:101AB00090E00E94F90262E08EEF91E00E949505AD
:101AC00084FF4BCF115089F748CF813309F07FC194
:101AD00060ED77E080E090E00E94F9020E94F90357
:101AE000562E60ED77E080E090E00E94F9020E94BF
:101AF000F903962E68EB7BE080E090E00E94F9020B
:101B00000E94F903362E68EB7BE080E090E00E94B3
:101B1000F9020E94F903462E68EB7BE080E090E03A
:101B20000E94F90259AE9AAE3BAE4CAE8EEF91E0F8
:101B30000E94C909882339F18EEF91E00E941F05A8
:101B4000882309F186E0E7E0F1E0DE01D396019019
:101B50000D928A95E1F720E032E0AE014D5C5F4FD7
:101B600061E080E60E944607082F882391F18330C8
:101B700059F58EEF91E00E94C90981110BC089E8E7
:101B800093E00E944B0A60ED77E080E090E00E94D5
:101B9000F9023BCF8EEF91E00E941F05882379F375
:101BA00020E032E0AE014D5C5F4F61E080E60E94D4
:101BB0004607082F882369F089E493E00E944B0AC6
:101BC000802F0E942F05DDCF8DE293E00E94E40478
:101BD000F7CF82E121968FAF219779A21AA29E01B9
:101BE0002D5D3F4F42E0BE016F5D7F4F8EEF91E074
:101BF0000E94D005082F811117C06F92812CB12C43
:101C0000A12CCE01805C9F4F6C01FE01B1967F013B
:101C100004E09F0140E36CE08EEF91E00E94270614
:101C2000082F0F90882361F086E193E00E94E4047E
:101C3000802F0E942F050E944B0A8EED92E0A1CFCB
:101C400059A29AA23BA24CA2692D63256425652561
:101C50006DA348E060E18EEF91E00E94E4078EEF13
:101C600091E00E94970780E48FAF87E08EAF80E21B
:101C70008DAF1F92812CCE01CE965C01FE01FD96A8
:101C80006F01CD977C0101E09E01215C3F4F40E355
:101C90006CE08EEF91E00E942706082F0F908823BA
:101CA00081F088E492E00E944B0A8BE392E00E946C
:101CB000E404802F0E942F050E944B0A8AEB92E0D9
:101CC00060CF8DAD813019F489818A30D9F08FE0F1
:101CD00092E00E94E404698170E090E080E040E1DD
:101CE0000E94070A8CE092E00E94E4046EAD70E06E
:101CF00090E080E04AE00E94070A8DEF91E00E94A8
:101D0000E404DCCF83E48FAF88E08EAF1F92812C98
:101D1000FE01FE965F01CE01CD966C01FD977F011D
:101D200001E09E01215C3F4F40E36CE08EEF91E0CB
:101D30000E942706082F0F90882339F083EB91E04B
:101D40000E944B0A86EA91E0B2CF8DAD813031F529
:101D500089818A3019F580EA89831A8262E0CE018E
:101D600001960E94590A982E81119DC160E1CE0111
:101D700081960E94590A982E811195C182E08DAFFB
:101D80009E01235C3F4FAE014F5F5F4F62E58EEFD8
:101D900091E00E947A0985ED93E0F3CE8AE791E025
:101DA0000E94E404698170E090E080E040E10E94DC
:101DB000070A87E791E00E94E4046EAD70E090E0CE
:101DC00080E04AE00E94070A88E691E098CF8233DB
:101DD00009F0E6C060ED77E080E090E00E94F90253
:101DE0000E94F903062F60ED77E080E090E00E940A
:101DF000F9021AA219A21CA21BA21EA21DA270E027
:101E000060E0CE0181960E94BA0A29A13AA181110F
:101E10002CC02115310519F0C9010E946E111AA2BA
:101E200019A21EA21DA21CA21BA20E94870397FD3D
:101E300024C089831A828DA09EA0FFEF8F1A9F0A6B
:101E4000B401CE0181960E94BA0A882371F329A1B8
:101E50003AA18DA19EA1BE016F5F7F4F820F931F9C
:101E60000E94BD129EA28DA2E0CF1EA21DA26BE217
:101E700071E0C9010E94BD12D8CF68EB7BE080E021
:101E800090E00E94F9021A8219821C821B821E8233
:101E90001D8289A09AA081149104B9F04DA05EA082
:101EA000B201CE0101960E94BA0A29813A818111BC
:101EB00070C02115310519F0C9010E946E111A82F6
:101EC00019821E821D821C821B826D817E81298166
:101ED0003A81E0E3F1E090E080E08617970730F484
:101EE000D901A80FB91F2115310521F410922F0136
:101EF000AFE2B1E04C91419301968031910569F7D1
:101F0000109340011093410110934201109343013B
:101F100010934401109345018EEF91E00E94C9098E
:101F2000882329F18EEF91E00E941F058823F9F0A4
:101F300020E032E040E451E0602F80E60E94460756
:101F400080EA8BAB0CAB62E0CE01C3960E94590ACB
:101F5000811105C060E180E391E00E94590A20E010
:101F600032E040E451E0602F82EC0E944607898114
:101F70009A81009711F00E946E1181E691E00E9413
:101F8000FF0489A19AA1009709F43FCD0E946E1128
:101F90003CCD5E824D82B401C9010E94BD1295CF35
:101FA000833309F073C00E94F903962E1093400109
:101FB0001093410110934201109343011093440187
:101FC000109345018EEF91E00E94C909882309F41E
:101FD00042C08EEF91E00E941F058823E1F120E0CE
:101FE00032E040E451E0692D80E60E94460780918E
:101FF0000001823120F1709246019092470128E45D
:1020000031E042E066E471E08EEF91E00E94D0059D
:10201000811115C06F92812CB12CA12C90E0C92E9A
:1020200091E0D92E26E4E22E21E0F22E04E0970181
:1020300040E36CE08EEF91E00E9427060F9020E0D5
:1020400032E040E451E0692D82EC0E9446078EEFB9
:1020500091E00E94970764EF71E080E090E00E94B9
:10206000F90286E4882E81E0982EF40161914F01F7
:1020700081E691E00E949704F6E58F16F1E09F0655
:10208000A1F781E691E00E94FF04BFCC80E090E0E0
:10209000892B09F4B5CC0E946104882309F4B0CCE3
:1020A0000E940000ADCC82EA92E00E94E404892DF7
:1020B00088CD0E949B10A59F900DB49F900DA49F6A
:1020C000800D911D112408952F923F924F925F929F
:1020D0006F927F928F929F92AF92BF92CF92DF9238
:1020E000EF92FF920F931F93CF93DF93CDB7DEB79D
:1020F000CA1BDB0B0FB6F894DEBF0FBECDBF099431
:102100002A88398848885F846E847D848C849B8487
:10211000AA84B984C884DF80EE80FD800C811B8195
:10212000AA81B981CE0FD11D0FB6F894DEBF0FBEC4
:10213000CDBFED010895A29FB001B39FC001A39F41
:10214000700D811D1124911DB29F700D811D1124F0
:10215000911D0895A1E21A2EAA1BBB1BFD010DC003
:10216000AA1FBB1FEE1FFF1FA217B307E407F50747
:1021700020F0A21BB30BE40BF50B661F771F881F23
:10218000991F1A9469F760957095809590959B01B9
:10219000AC01BD01CF010895EE0FFF1F0590F49132
:1021A000E02D09940F931F93CF93DF938230910515
:1021B00010F482E090E0E0911002F091110230E022
:1021C00020E0B0E0A0E0309799F42115310509F442
:1021D0004AC0281B390B24303105D8F58A819B81F0
:1021E0006115710589F1FB0193838283FE0111C0A2
:1021F000408151810281138148175907E0F0481747
:10220000590799F4109761F012960C931297139650
:102210001C933296CF01DF91CF911F910F910895BA
:102220000093100210931102F4CF2115310551F0E3
:102230004217530738F0A901DB019A01BD01DF0104
:10224000F801C1CFEF01F9CF9093110280931002F2
:10225000CDCFFE01E20FF31F8193919322503109FC
:1022600039832883D7CF20910E0230910F02232B80
:1022700041F4209103013091040130930F02209327
:102280000E0220910101309102012115310541F426
:102290002DB73EB74091050150910601241B350B27
:1022A000E0910E02F0910F02E217F307A0F42E1B4B
:1022B0003F0B2817390778F0AC014E5F5F4F2417AA
:1022C000350748F04E0F5F1F50930F0240930E02E8
:1022D000819391939FCFF0E0E0E09CCFCF93DF9389
:1022E0000097E9F0FC01329713821282A09110024C
:1022F000B0911102ED0130E020E01097A1F42081AF
:102300003181820F931F20910E0230910F02281706
:10231000390709F061C0F0930F02E0930E02DF91DC
:10232000CF910895EA01CE17DF07E8F54A815B8176
:102330009E0141155105B1F7E901FB83EA834991FB
:102340005991C40FD51FEC17FD0761F4808191816D
:102350000296840F951FE901998388838281938176
:102360009B838A83F0E0E0E012968D919C91139715
:102370000097B9F52D913C911197CD010296820FEE
:10238000931F20910E0230910F022817390739F65A
:10239000309751F51092110210921002B0930F0273
:1023A000A0930E02BCCFD383C28340815181840F9E
:1023B000951FC817D90761F44E5F5F4F88819981D7
:1023C000480F591F518340838A819B819383828365
:1023D0002115310509F0B0CFF0931102E0931002FE
:1023E0009ECFFD01DC01C0CF13821282D7CFB0E0B7
:1023F000A0E0EDEFF1E10C9466108C01009751F430
:10240000CB010E94D2108C01C801CDB7DEB7E0E14C
:102410000C948210FC01E60FF71F9C012250310939
:10242000E217F30708F49DC0D901CD91DC91119713
:10243000C617D70798F0C530D10530F3CE01049701
:102440008617970708F3C61BD70B2297C193D19322
:102450006D937C93CF010E946E11D6CF5B01AC1AB5
:10246000BD0A4C018C0E9D1EA0911002B09111026C
:10247000512C412CF12CE12C109731F580910E025A
:1024800090910F028815990509F05CC04616570611
:1024900008F058C08091010190910201009741F429
:1024A0008DB79EB74091050150910601841B950B95
:1024B000E817F90708F055C0F0930F02E0930E02F9
:1024C000F90171836083A0CF8D919C911197129631
:1024D0006C90129713967C901397A815B90559F52F
:1024E0006C0142E0C40ED11CCA14DB0420F1AC0123
:1024F0004A195B09DA011296159780F0628273829D
:1025000051834083D9016D937C93E114F10471F000
:10251000D7011396FC93EE93129776CF22968C0FE9
:102520009D1FF90191838083F301EFCFF093110296
:10253000E093100269CF4816590608F42C017D017A
:10254000D3019ACFCB010E94D2107C01009749F0B1
:10255000AE01B8010E94B412C8010E946E11870139
:1025600053CF10E000E050CFFB01DC0102C001902E
:102570000D9241505040D8F70895FB01DC010190C5
:0C2580000D920020E1F70895F894FFCFC1
:10258C0012000012028000FFFFFFFFFFFF0000009F
:10259C0000970437036403FF0455047303B9030065
:0E25AC00000000F807C9091F050D0A002000F5
:00000001FF
