:100000000C941F020C9447020C9447020C94470274
:100010000C9447020C9447020C9447020C9447023C
:100020000C9447020C9447020C9447020C9447022C
:100030000C9447020C9447020C9447020C9447021C
:100040000C94C00A0C9447020C94300B0C940A0BCD
:100050000C9447020C9447020C9447020C944702FC
:100060000C9447020C944702556E6B6E6F776E20AE
:100070006572726F720041204D49464152452050D1
:1000800049434320726573706F6E646564207769BD
:100090007468204E414B2E00546865204352435FE4
:1000A0004120646F6573206E6F74206D61746368A6
:1000B0002E00496E76616C696420617267756D65AA
:1000C0006E742E00496E7465726E616C206572727A
:1000D0006F7220696E2074686520636F64652E20DE
:1000E00053686F756C64206E6F7420686170706502
:1000F0006E2E004120627566666572206973206EFF
:100100006F742062696720656E6F7567682E005492
:10011000696D656F757420696E20636F6D6D756EA6
:1001200069636174696F6E2E00436F6C6C697369EB
:100130006F6E2064657465637465642E0045727229
:100140006F7220696E20636F6D6D756E6963617487
:10015000696F6E2E00537563636573732E00000024
:1001600000002300260029002076616C696420626B
:10017000697473290D0A00202800476F742062619A
:100180006420726573706F6E7365206F6E2062619C
:10019000636B646F6F72203078343320636F6D6DE2
:1001A000616E643A20004572726F72206E616D65F7
:1001B0003A20004572726F7220696E20636F6D6D18
:1001C000756E69636174696F6E20617420636F6D11
:1001D0006D616E6420307834332C206166746572F2
:1001E000207375636365737366756C6C79206578CD
:1001F00065637574696E67203078343000207661ED
:100200006C69642062697473290D0A002028004714
:100210006F742062616420726573706F6E73652005
:100220006F6E206261636B646F6F72203078343060
:1002300020636F6D6D616E643A20004572726F725B
:10024000206E616D653A20004361726420646964C8
:10025000206E6F7420726573706F6E6420746F20EF
:10026000307834302061667465722048414C5420E7
:10027000636F6D6D616E642E2041726520796F75BC
:100280002073757265206974206973206120554957
:1002900044206368616E676561626C65206F6E659E
:1002A0003F004D49464152455F57726974652829A0
:1002B000206661696C65643A200041637469766107
:1002C00074696E67207468652055494420626163D3
:1002D0006B646F6F72206661696C65642E00417299
:1002E0006520796F75207375726520796F7572203E
:1002F0004B4559204120666F7220736563746F729D
:1003000020302069732030784646464646464646A9
:10031000464646463F004D49464152455F5265615B
:10032000642829206661696C65643A200050434462
:100330005F41757468656E7469636174652829200E
:100340006661696C65643A20004661696C65642089
:10035000746F2061757468656E746963617465207B
:10036000746F206361726420666F722072656164CD
:10037000696E672C20636F756C64206E6F742073D8
:100380006574205549443A20004E6F2063617264C1
:10039000207761732070726576696F75736C792050
:1003A00073656C65637465642C20616E64206E6F88
:1003B0006E652061726520617661696C61626C6551
:1003C0002E204661696C656420746F20736574200B
:1003D0005549442E0057726F7465206E657720551D
:1003E000494420746F20636172642E000000000095
:1003F000240027002A0000000000250028002B0010
:1004000004040404040404040202020202020303BA
:1004100003030303010204081020408001020408C2
:100420001020010204081020000000080002010052
:10043000000304070000000000000000620B11240C
:100440001FBECFEFD8E0DEBFCDBF22E0A0E8B1E015
:1004500001C01D92A436B207E1F711E0A0E0B1E0BF
:10046000E0E1F5E202C005900D92A038B107D9F79E
:1004700012E0CFE1D2E004C02197FE010E948E106D
:10048000CE31D107C9F70E94990B0C9486120C94B7
:1004900000008CBD9DBD0895833081F028F481302B
:1004A00099F08230A9F008958730A9F08830C9F01A
:1004B0008430B1F4809180008F7D03C080918000F2
:1004C0008F7780938000089584B58F7784BD0895D9
:1004D00084B58F7DFBCF8091B0008F778093B00083
:1004E00008958091B0008F7DF9CF1F93CF93DF9354
:1004F000282F30E0F901E85DFB4F8491F901EC5EB3
:10050000FB4FD491F901E050FC4FC491CC23A9F0EA
:10051000162F81110E944C02EC2FF0E0EE0FFF1F0E
:10052000EA50FC4FA591B4918FB7F894EC9111115A
:1005300008C0D095DE23DC938FBFDF91CF911F9150
:100540000895DE2BF8CFCF93DF9390E0FC01EC5EB3
:10055000FB4F249180509C4FFC0184918823D1F063
:1005600090E0880F991FFC01E451FC4FA591B491D4
:10057000FC01EA50FC4FC591D49161110EC09FB7A8
:10058000F8948C91E22FE0958E238C932881E223BE
:10059000E8839FBFDF91CF9108958FB7F894EC91D6
:1005A000E22BEC938FBFF6CF3FB7F8948091AF0169
:1005B0009091B001A091B101B091B20126B5A89B74
:1005C00005C02F3F19F00196A11DB11D3FBFBA2FE5
:1005D000A92F982F8827BC01CD01620F711D811DA5
:1005E000911D42E0660F771F881F991F4A95D1F72A
:1005F00008958F929F92AF92BF92CF92DF92EF9227
:10060000FF924B015C010E94D4026B017C010E94AD
:10061000D4026C197D098E099F09683E73408105DB
:100620009105A8F321E0821A9108A108B10888EE8B
:10063000C80E83E0D81EE11CF11C81149104A104B2
:10064000B10429F7FF90EF90DF90CF90BF90AF906B
:100650009F908F9008952FB7F8946091AB0170919F
:10066000AC018091AD019091AE012FBF0895AF9282
:10067000BF92CF92DF92EF92FF920F931F93CF938F
:10068000DF936C017B018B01040F151FEB015E01F1
:10069000AE18BF08C017D10759F06991D601ED9186
:1006A000FC910190F081E02DC6010995892B79F725
:1006B000C501DF91CF911F910F91FF90EF90DF90D7
:1006C000CF90BF90AF900895FC01538D448D252F9E
:1006D00030E0842F90E0821B930B541710F0CF96DC
:1006E000089501970895FC01918D828D981761F00E
:1006F000A28DAE0FBF2FB11D5D968C91928D9F5F25
:100700009F73928F90E008958FEF9FEF08950F935E
:100710001F930E942B036093BB017093BC018093D5
:10072000BD019093BE0183EB91E00E94730397FF9C
:100730001DC00E942B030091BB011091BC012091B0
:10074000BD013091BE01601B710B820B930B0091B8
:10075000B7011091B8012091B9013091BA01601729
:10076000710782079307F8F28FEF9FEF1F910F91A8
:100770000895FC01918D828D981731F0828DE80FDC
:10078000F11D858D90E008958FEF9FEF08950F93F1
:100790001F930E942B036093BB017093BC01809355
:1007A000BD019093BE0183EB91E00E94B90397FFD6
:1007B0001DC00E942B030091BB011091BC01209130
:1007C000BD013091BE01601B710B820B930B009138
:1007D000B7011091B8012091B9013091BA016017A9
:1007E000710782079307F8F28FEF9FEF1F910F9128
:1007F0000895CF92DF92EF92FF92CF930E94C703AA
:10080000FC0197FD4EC08D32910521F0C0970A97EB
:1008100008F040C0C12CD12C7601C0E0E130F105D8
:10082000D1F0ED32F105D9F1CF01C0970A9798F4D4
:10083000AAE0B0E0A70196010E941B106F01FF0F14
:10084000EE08FF08C60ED71EE81EF91E80E3C81A80
:10085000D108E108F10883EB91E00E9473030E9444
:10086000C703FC01C0970A97C8F2E130F105B1F265
:10087000CC2341F0F094E094D094C094C11CD11CDE
:10088000E11CF11CC701B601CF91FF90EF90DF9002
:10089000CF90089583EB91E00E947303AFCFC1E046
:1008A000DACFC12CD12C7601EDCFFC01918D228DB8
:1008B000892F90E0805C9F4F821B91098F7399274D
:1008C000089583EB91E00E94550421E0892B09F4FF
:1008D00020E0822F089580E090E0892B29F00E948B
:1008E000610481110C9400000895FC01A48DA80FEF
:1008F000B92FB11DA35ABF4F2C91848D90E0019662
:100900008F739927848FA689B7892C93A089B18981
:100910008C91837080648C93938D848D981306C022
:100920000288F389E02D80818F7D80830895EF9286
:10093000FF920F931F93CF93DF93EC0181E0888F99
:100940009B8D8C8D98131AC0E889F989808185FF69
:1009500015C09FB7F894EE89FF896083E889F9890B
:1009600080818370806480839FBF81E090E0DF910D
:10097000CF911F910F91FF90EF900895F62E0B8D60
:1009800010E00F5F1F4F0F731127E02E8C8D8E111B
:100990000CC00FB607FCFACFE889F989808185FF82
:1009A000F5CFCE010E947504F1CFEB8DEC0FFD2F3A
:1009B000F11DE35AFF4FF0829FB7F8940B8FEA893D
:1009C000FB8980818062CFCF0F931F93CF93DF93FA
:1009D0008C01D0E0C0E0F801EC0FFD1F64916623AC
:1009E00041F083EB91E00E949704892B11F021964E
:1009F000F2CFCE01DF91CF911F910F910895CF9348
:100A0000DF93EC01888D8823B9F0AA89BB89E88936
:100A1000F9898C9185FD03C0808186FD0DC00FB6DC
:100A200007FCF7CF8C9185FFF2CF808185FFEDCF5A
:100A3000CE010E947504E9CFDF91CF910895BC01EA
:100A40006E5F7F4FDC01ED91FC910190F081E02D14
:100A500040E0099591E0811190E0892F089584305C
:100A6000F1F050F4813091F030F1823091F0833028
:100A700099F088E690E008958630B9F098F08730D4
:100A8000B9F08F3FB1F786E790E008958DE391E0EC
:100A9000089589E291E008958FE091E0089583EF51
:100AA00090E0089584EC90E0089582EB90E0089542
:100AB00088E990E0089585E591E0089508958EBD58
:100AC00000000DB407FEFDCF8EB50895DF92EF92C2
:100AD000FF920F931F93CF93DF937C01062FD42EA9
:100AE000152F80E590E00E94490260E0F7018685BD
:100AF0000E94750282E10E945F05CD2DD12F0C0F5F
:100B00001D2F111DC017D10721F089910E945F058B
:100B1000F9CF61E0F7018685DF91CF911F910F91A9
:100B2000FF90EF90DF900C9475021F93CF93DF93AB
:100B3000EC01162F80E590E00E94490260E08E856E
:100B40000E947502812F80680E945F0580E00E94EC
:100B50005F05182F61E08E850E947502812FDF915D
:100B6000CF911F9108950F931F93CF93DF93EC01C3
:100B7000062F142F80E590E00E94490260E08E85E8
:100B80000E947502802F0E945F05812F0E945F05E1
:100B900061E08E85DF91CF911F910F910C947502CA
:100BA000CF92DF92EF92FF920F931F93CF93DF9339
:100BB000EC016B01F42E890140E062E00E94B30574
:100BC00044E06AE0CE010E94B30540E864E1CE0152
:100BD0000E94B305A6016F2DCE010E94660543E079
:100BE00062E0CE010E94B3050E942B036B017C01E1
:100BF00029E5C20ED11CE11CF11C6AE0CE010E9465
:100C0000950582FF1BC040E062E0CE010E94B30563
:100C100064E4CE010E949505F801808362E4CE0170
:100C20000E949505F801818380E0DF91CF911F91AB
:100C30000F91FF90EF90DF90CF9008950E942B03CB
:100C40006C157D058E059F05C0F283E0EECF2F92D7
:100C50003F924F925F926F927F928F929F92AF924C
:100C6000BF92CF92DF92EF92FF920F931F93CF9399
:100C7000DF9300D0CDB7DEB73C01162F942E2901AB
:100C800080E0A114B10411F0F5018081382C329478
:100C900090EF3922380E40E062E0C3010E94B305B4
:100CA0004FE768E0C3010E94B30540E864E1C30177
:100CB0000E94B305A201602FC3010E946605432D67
:100CC0006AE1C3010E94B305412F62E0C3010E94A3
:100CD000B3051C3051F46AE1C3010E949505482F09
:100CE00040686AE1C3010E94B3050E942B031B0107
:100CF0002C01F4E22F0E311C411C511C68E0C30191
:100D00000E949505982F992109F0B6C080FF16C062
:100D100083E00F900F90DF91CF911F910F91FF9083
:100D2000EF90DF90CF90BF90AF909F908F907F908B
:100D30006F905F904F903F902F9008950E942B03EB
:100D40006215730584059505C8F2E2CFE114F1043C
:100D500009F467C0C114D10409F463C064E1C3019C
:100D60000E949505982EF6018081891508F47EC0B1
:100D700090829920C9F180E590E00E94490260E0EC
:100D8000F30186850E9475029A9482E90E945F05AC
:100D9000882099F00FEF10E001C0000F8A94EAF765
:100DA00082E90E945F05902F9095F70120819223A0
:100DB0008023982B9083882483948701080D111D2C
:100DC000891440F482E90E945F05F80181938F0144
:100DD0008394F6CF80E00E945F05F801808361E094
:100DE000F30186850E94750268E1C3010E949505A2
:100DF0008770A114B10411F0F501808353FC38C051
:100E0000E114F104B9F1C114D104A1F19F8999232E
:100E100089F1F6014081413031F4843029F58FEFBA
:100E200078CF80E0EBCF4230F8F081111DC0425006
:100E30009E012F5F3F4FB701C3010E94D005811172
:100E400068CFF6019081E90EF11CF70132972081FD
:100E50009981291309C0F1E0EF1AF108F701208107
:100E60009A81291709F455CF87E053CF84E051CFF9
:100E700082E04FCF80E04DCF6CE0C3010E9495052A
:100E8000582E837109F462CF81E043CF8F92AF92E5
:100E9000BF92CF92DF92EF92FF920F93CF93DF93A7
:100EA000CDB7DEB72C970FB6F894DEBF0FBECDBF1F
:100EB00089836A83FA01DE011396CA01069641917D
:100EC0004D93E817F907D9F7D901EC91E350FF0BDF
:100ED000E20FF31FDE011996CE010D9621912D939D
:100EE000A817B907D9F71F92812CB12CA12CD12CAE
:100EF000C12CF12CE12C0CE09E012F5F3F4F40E113
:100F00006EE080E592E00E9427060F902C960FB6C7
:100F1000F894DEBF0FBECDBFDF91CF910F91FF9050
:100F2000EF90DF90CF90BF90AF908F9008950F9388
:100F30001F93CF93DF938C01D62FC42F0E9495056A
:100F4000C0954C2F48236D2FC801DF91CF911F9181
:100F50000F910C94B3052F923F924F925F926F9234
:100F60007F928F929F92AF92BF92CF92DF92EF9239
:100F7000FF920F931F93CF93DF93CDB7DEB72E97DA
:100F80000FB6F894DEBF0FBECDBF06E0413508F0C6
:100F900046C14E873B012C0140E86CE10E94970757
:100FA00083E989832E85222329F081E0F301908152
:100FB000953008F480E0992493941C869C85990FC1
:100FC000990F990F1E85191B17FD10E032E0882339
:100FD00019F098E89B8333E021E0912F977009F492
:100FE00020E0912F959595959595290FD1F094E056
:100FF000811193E0291708F4922F2C85E22FF0E05D
:101000003196E60DF71D232F4191A1E0B0E0AC0F22
:10101000BD1FA20FB11D4C932F5F422F431B4917D9
:1010200098F38111185F10320CF484C080E78A8332
:101030008B819C8189279D8189279E8189278F8328
:101040009E01285F3F4F47E0BE016F5F7F4FC201A7
:101050000E94D005082F8111E2C01A8693E09B8779
:101060001D87FE0137961F0109E08A84482D4295AD
:10107000407F480D6AE1C2010E94B3051F92CE0174
:101080000A965C01FE013B966F0171019E012F5F84
:101090003F4F40E36CE0C2010E942706082F0F90EB
:1010A000823009F065C06CE1C2010E94950585FDA2
:1010B000B6C08F7109F480E2282F30E0412F110F64
:1010C000550B421753070CF09EC0182FE22FE595E1
:1010D000E595E595EF5F922F977081E009F480E048
:1010E000E80F81E090E08C0F9D1F8E0F911DFC0199
:1010F000215031092770332781E090E002C0880F2A
:10110000991F2A95E2F79C018081822B80838BCFE7
:1011100085E98983FE85FF2331F081E0F301908129
:10112000983008F04BCF80E049CF87E98983F6E01B
:10113000FC87F9CF912F97709A87812F8595859598
:1011400085958E5F282F2295207F290F2A8301E025
:10115000911101C000E0080F22242394312C2C0EA1
:101160003D1E280E311CF9E0F81BFB871D877DCF43
:10117000811155C010E29D8590320CF457CF8B81C0
:10118000883809F042C083E093E02C85E22FF0E03C
:101190003196E60DF71D980FA1E0B0E0AC0FBD1F32
:1011A000A80FB11D2C9121938F5F8913F5CF8B85EB
:1011B0008C87833009F04DC08A8581114AC09E0119
:1011C0002D5F3F4F41E0B101C2010E94D005082FC1
:1011D000811125C09B81F101818198133CC09C81C4
:1011E0008281981338C0808182FF12C09394F2E00C
:1011F0009F1609F48DCF23E0921609F496CF81E073
:10120000981609F4CDCE05E00AC082E094E0BDCF87
:10121000F3018387892D880F980E93949082802FF5
:101220002E960FB6F894DEBF0FBECDBFDF91CF91E3
:101230001F910F91FF90EF90DF90CF90BF90AF90F4
:101240009F908F907F906F905F904F903F902F90E6
:10125000089501E0E4CF07E0E2CF4F925F926F92F2
:101260007F928F92AF92BF92CF92DF92EF92FF92D6
:101270000F93CF93DF9300D0CDB7DEB76A83F90128
:1012800060816230A8F139017A012C0140E86CE1FB
:101290000E94970787E089831F92812CCE010196D7
:1012A0005C01630101E09E012E5F3F4F40E36CE073
:1012B000C2010E9427060F90811109C0F3018081AD
:1012C0008230C1F481E09981911101C080E00F90DA
:1012D0000F90DF91CF910F91FF90EF90DF90CF9023
:1012E000BF90AF908F907F906F905F904F900895D8
:1012F00084E0EDCF81E0EBCF0F931F93CF93DF938B
:1013000000D01F92CDB7DEB78C0182E08B8340E026
:1013100064E2C8010E94B30540E066E2C8010E9491
:10132000B30546E268E4C8010E94B3059E012D5F43
:101330003F4FAE014F5F5F4F66E2C8010E942D092B
:10134000982F9D7F81E009F080E00F900F900F9023
:10135000DF91CF911F910F910895FC010190002022
:10136000E9F73197AF01481B590BBC0183EB91E0C2
:101370000C9437038F929F92AF92BF920F931F935B
:10138000CF93DF93CDB7DEB7A1970FB6F894DEBF4A
:101390000FBECDBF19A2423008F44AE08E010F5DA6
:1013A0001F4F842E912CB12CA12CA50194010E94D9
:1013B0006C10E62FB901CA01EA30F4F4E05DD801FF
:1013C000EE938D01232B242B252B79F790E080E0E1
:1013D000109719F0CD010E94AD09A1960FB6F894AF
:1013E000DEBF0FBECDBFDF91CF911F910F91BF9098
:1013F000AF909F908F900895E95CE1CFCF93DF93FA
:101400000E94E404EC0189E291E00E94AD098C0F96
:101410009D1FDF91CF9108958F92AF92BF92CF928F
:10142000DF92EF92FF920F93CF93DF93CDB7DEB7AA
:1014300064970FB6F894DEBF0FBECDBF062FE62E21
:10144000F12CA701BC01CE0101960E94761221E089
:1014500030E02C0F3D1F2E0D3F1D402FBE016F5F52
:101460007F4F80E592E00E94D005811123C082E188
:101470008C8B1B8A0E5F1F92812CCE0143965C01E0
:1014800001966C0143977C019C0140E36CE080E590
:1014900092E00E9427060F9081110CC08C89813048
:1014A000D1F48B898430B9F481E099819A3009F4C0
:1014B00080E0819564960FB6F894DEBF0FBECDBF75
:1014C000DF91CF910F91FF90EF90DF90CF90BF9081
:1014D000AF908F90089581E0EDCF0F931F93CF933E
:1014E000DF93EC0188819981009759F02A813B8133
:1014F0002617370730F081E0DF91CF911F910F91D0
:1015000008958B016F5F7F4F0E94B911009759F0CA
:10151000998388831B830A832C813D81232B59F770
:10152000FC011082E8CF80E0E7CFEF92FF920F93AB
:101530001F93CF93DF93EC017B018A01BA010E94D4
:101540006D0A28813981811114C02115310519F0E6
:10155000C9010E943011198218821D821C821B82CF
:101560001A82CE01DF91CF911F910F91FF90EF90E2
:1015700008951D830C83B701C9010E947F12F1CF2A
:101580001F920F920FB60F9211242F933F938F93B8
:101590009F93AF93BF938091AB019091AC01A091C9
:1015A000AD01B091AE013091AA0123E0230F2D3798
:1015B00058F50196A11DB11D2093AA018093AB019E
:1015C0009093AC01A093AD01B093AE018091AF01B7
:1015D0009091B001A091B101B091B2010196A11D0D
:1015E000B11D8093AF019093B001A093B101B0936E
:1015F000B201BF91AF919F918F913F912F910F9029
:101600000FBE0F901F90189526E8230F0296A11D7C
:10161000B11DD2CF1F920F920FB60F9211242F93AC
:101620003F934F935F936F937F938F939F93AF936A
:10163000BF93EF93FF9383EB91E00E947504FF91BA
:10164000EF91BF91AF919F918F917F916F915F913A
:101650004F913F912F910F900FBE0F901F901895B3
:101660001F920F920FB60F9211242F938F939F9377
:10167000EF93FF93E091C301F091C4018081E09169
:10168000C901F091CA0182FD1BC090818091CC01FB
:101690008F5F8F732091CD01821741F0E091CC01D3
:1016A000F0E0ED54FE4F958F8093CC01FF91EF91C8
:1016B0009F918F912F910F900FBE0F901F901895B3
:1016C0008081F4CFE3EBF1E01382128288EE93E0A5
:1016D000A0E0B0E084839583A683B78381E191E0A5
:1016E0009183808385EC90E09587848784EC90E0FB
:1016F0009787868780EC90E0918B808B81EC90E0DF
:10170000938B828B82EC90E0958B848B86EC90E0BF
:10171000978B868B118E128E138E148EE0E5F2E07D
:1017200083E291E0918380838AE0868789E08787DE
:101730000895CF93DF93CDB7DEB7C054D1090FB66C
:10174000F894DEBF0FBECDBF789484B5826084BDAF
:1017500084B5816084BD85B5826085BD85B58160B5
:1017600085BD80916E00816080936E001092810033
:1017700080918100826080938100809181008160EE
:1017800080938100809180008160809380008091AF
:10179000B10084608093B1008091B000816080933B
:1017A000B00080917A00846080937A0080917A0002
:1017B000826080937A0080917A00816080937A00C1
:1017C00080917A00806880937A001092C100E09145
:1017D000C301F091C40182E08083E091BF01F091E8
:1017E000C0011082E091C101F091C2018FEC8083B1
:1017F0001092CB01E091C701F091C80186E080838F
:10180000E091C501F091C601808180618083E09103
:10181000C501F091C601808188608083E091C50197
:10182000F091C601808180688083E091C501F091CC
:10183000C60180818F7D80831FB7F89480918001DD
:10184000811127C0EAE0F4E08491EEE1F4E09491A4
:10185000E82FF0E0EE0FFF1FE451FC4FA591B4918B
:10186000EC91E92321F461E08AE00E94750261E0D5
:101870008AE00E94A3028CB580618CBD8CB5806427
:101880008CBD61E08DE00E94A30261E08BE00E94CC
:10189000A302809180018F5F809380011FBF61E070
:1018A00080915E020E94A30261E080915E020E942C
:1018B000750280915F028F3F09F4C9C060E00E9409
:1018C000A30220915F0230E0F901E85DFB4F8491B3
:1018D000F901EC5EFB4F9490F901E050FC4F14913C
:1018E0001111A6C061E080915F020E94A30260E036
:1018F00080915F020E94750283E090E00197F1F70A
:1019000061E080915F020E94750262E370E080E016
:1019100090E00E94F90240E064E280E592E00E94DB
:10192000B30540E066E280E592E00E94B30546E23E
:1019300068E480E592E00E94B30540E864E580E554
:1019400092E00E94B30549EA66E580E592E00E94D4
:10195000B30543E068E580E592E00E94B30548EEF8
:101960006AE580E592E00E94B30540E46AE280E522
:1019700092E00E94B3054DE362E280E592E00E94AE
:10198000B30568E280E592E00E949505982F937078
:10199000933039F0482F436068E280E592E00E947E
:1019A000B3058FEF8093920180939301809394010C
:1019B0008093950180939601809397011FEF40E3F8
:1019C000742E83EB91E00E945504892B09F420C307
:1019D00083EB91E00E947303803309F04FC080E5F0
:1019E00092E00E947C09882361F380E592E00E94E6
:1019F0001F05882331F330E5832E32E0932EC40196
:101A0000805592402FEF821A920A20915202281795
:101A10001906B9F2B4F2F401628170E090E080E05E
:101A20004AE00E94BA098CE291E00E94AD09E7CF3A
:101A300081110E944C02E12FF0E0EE0FFF1FE25AED
:101A4000FE4FA591B491EC919E2209F44BCF4FE04B
:101A500062E080E592E00E94B30513E062E370E08B
:101A600080E090E00E94F90262E080E592E00E944E
:101A7000950584FF50CF115089F74DCF813309F080
:101A80009AC160ED77E080E090E00E94F9020E9448
:101A9000F903662E60ED77E080E090E00E94F902A5
:101AA0000E94F903962E68EB7BE080E090E00E94B4
:101AB000F9020E94F903462E68EB7BE080E090E09B
:101AC0000E94F9020E94F903562E68EB7BE080E049
:101AD00090E00E94F90269AE9AAE4BAE5CAE80E532
:101AE00092E00E947C09882309F46BCF80E592E0A4
:101AF0000E941F05882309F464CF86E0E7E0F1E047
:101B0000DE01D39601900D928A95E1F722E532E04D
:101B1000AE014D5C5F4F61E080E60E944607082FF2
:101B2000882361F1833029F580E592E00E947C09E9
:101B3000811105C089E893E00E94FE0942CF80E54B
:101B400092E00E941F058823A9F322E532E0AE014E
:101B50004D5C5F4F61E080E60E944607082F8823B6
:101B600069F089E493E00E94FE09802F0E942F050E
:101B7000E3CF8DE293E00E94E404F7CF82E1219667
:101B80008FAF219779A21AA29E012D5D3F4F42E0AF
:101B9000BE016F5D7F4F80E592E00E94D005882EE8
:101BA000811117C081E08F93B12CA12CCE01805CF4
:101BB0009F4F6C01FE01B1967F0104E09F0140E35D
:101BC0006CE080E592E00E942706882E0F90882323
:101BD00061F086E193E00E94E404882D0E942F05C5
:101BE0000E94FE098EED92E0A7CF69A29AA24BA2B5
:101BF0005CA2692D6425652566256DA348E060E13A
:101C000080E592E00E94970780E589831A829E0111
:101C10002D5F3F4F42E0BE016F5F7F4F80E592E056
:101C20000E94D005811113C01F92812CB12CA12CD0
:101C3000D12CC12CF12CE12C04E09E012F5F3F4FF1
:101C400040E36CE080E592E00E9427060F9080E47C
:101C50008FAF87E08EAF80E28DAF1F92812CCE01D7
:101C6000CE965C01FE01FD966F01CD977C0101E0EF
:101C70009E01215C3F4F40E36CE080E592E00E94D2
:101C80002706082F0F90882381F088E492E00E94B5
:101C9000FE098BE392E00E94E404802F0E942F054E
:101CA0000E94FE098AEB92E047CF8DAD813019F496
:101CB00089818A30D9F08FE092E00E94E404698142
:101CC00070E090E080E040E10E94BA098CE092E090
:101CD0000E94E4046EAD70E090E080E04AE00E9473
:101CE000BA098DEF91E00E94E404DCCF83E48FAF6A
:101CF00088E08EAF1F92812CFE01FE965F01CE011F
:101D0000CD966C01FD977F0101E09E01215C3F4F64
:101D100040E36CE080E592E00E942706082F0F90D8
:101D2000882339F083EB91E00E94FE0986EA91E076
:101D3000B2CF8DAD813031F589818A3019F580EAD5
:101D400089831A8262E0CE0101960E940C0A982EC5
:101D500081116BC160E1CE0181960E940C0A982E20
:101D6000811163C182E08DAF9E01235C3F4FAE01C4
:101D70004F5F5F4F62E580E592E00E942D0985ED9F
:101D800093E0DACE8AE791E00E94E404698170E092
:101D900090E080E040E10E94BA0987E791E00E946C
:101DA000E4046EAD70E090E080E04AE00E94BA0981
:101DB00088E691E098CF823309F0C0C060ED77E00B
:101DC00080E090E00E94F9020E94F903062F60ED86
:101DD00077E080E090E00E94F9021AA219A21CA20A
:101DE0001BA21EA21DA250E040E06BE271E0CE01FA
:101DF00081960E94950A0E94870397FD1CC08983E3
:101E00001A828DA09EA0FFEF8F1A9F0AB401CE0107
:101E100081960E946D0A882371F329A13AA18DA1B0
:101E20009EA1BE016F5F7F4F820F931F0E947F12A2
:101E30009EA28DA2E0CF68EB7BE080E090E00E9464
:101E4000F9021A8219821C821B821E821D8269A1DC
:101E50007AA16115710531F04DA15EA1CE01019607
:101E60000E94950A6D817E8129813A81E2E8F1E044
:101E700090E080E08617970730F4D901A80FB91FCA
:101E80002115310521F410928101A1E8B1E04C91B6
:101E9000419301968031910569F710939201109357
:101EA0009301109394011093950110939601109350
:101EB000970180E592E00E947C09882349F180E542
:101EC00092E00E941F05882319F122E532E042E9E1
:101ED00051E0602F80E60E94460780EA8BAB0CAB96
:101EE00062E0CE01C3960E940C0A811105C060E138
:101EF00082E891E00E940C0A22E532E042E951E0DA
:101F0000602F82EC0E9446078EE291E00E94AD09AC
:101F100089819A81009711F00E94301150E040E0D1
:101F20006BE271E0CE0181960E94950A89A19AA187
:101F3000009709F446CD0E94301143CD833309F058
:101F400067C00E94F903962E10939201109393019B
:101F5000109394011093950110939601109397019B
:101F600080E592E00E947C09882309F42ACD80E56F
:101F700092E00E941F05882309F423CD22E532E078
:101F800042E951E0692D80E60E94460780910001F8
:101F9000823128F170929801909299012AE931E0FA
:101FA00042E068E971E080E592E00E94D00581118D
:101FB00016C081E08F93812CB12CA12C90E0C92E0A
:101FC00091E0D92E28E9E22E21E0F22E04E09701DB
:101FD00040E36CE080E592E00E9427060F9022E546
:101FE00032E042E951E0692D82EC0E94460788E91F
:101FF000882E81E0982EF40161914F0183EB91E0EE
:102000000E949704F8EA8F16F1E09F06A1F7D9CC59
:1020100080E090E0892B09F4D1CC0E9461048823F0
:1020200009F4CCCC0E940000C9CC82EA92E00E9464
:10203000E404892D9BCD0E945D10A59F900DB49F57
:10204000900DA49F800D911D112408952F923F9211
:102050004F925F926F927F928F929F92AF92BF92B8
:10206000CF92DF92EF92FF920F931F93CF93DF9364
:10207000CDB7DEB7CA1BDB0B0FB6F894DEBF0FBEC1
:10208000CDBF09942A88398848885F846E847D840E
:102090008C849B84AA84B984C884DF80EE80FD8010
:1020A0000C811B81AA81B981CE0FD11D0FB6F89486
:1020B000DEBF0FBECDBFED010895A29FB001B39F5B
:1020C000C001A39F700D811D1124911DB29F700D41
:1020D000811D1124911D0895A1E21A2EAA1BBB1B7C
:1020E000FD010DC0AA1FBB1FEE1FFF1FA217B307E4
:1020F000E407F50720F0A21BB30BE40BF50B661FFA
:10210000771F881F991F1A9469F7609570958095BD
:1021100090959B01AC01BD01CF010895EE0FFF1F0B
:102120000590F491E02D09940F931F93CF93DF93C3
:102130008230910510F482E090E0E0916202F0912B
:10214000630230E020E0B0E0A0E0309799F4211580
:10215000310509F44AC0281B390B24303105D8F564
:102160008A819B816115710589F1FB0193838283CB
:10217000FE0111C040815181028113814817590726
:10218000E0F04817590799F4109761F012960C93F4
:10219000129713961C933296CF01DF91CF911F9126
:1021A0000F9108950093620210936302F4CF2115FA
:1021B000310551F04217530738F0A901DB019A01AC
:1021C000BD01DF01F801C1CFEF01F9CF90936302A8
:1021D00080936202CDCFFE01E20FF31F81939193B2
:1021E0002250310939832883D7CF20916002309162
:1021F0006102232B41F420910301309104013093BB
:1022000061022093600220910101309102012115A9
:10221000310541F42DB73EB74091050150910601BB
:10222000241B350BE0916002F0916102E217F30785
:10223000A0F42E1B3F0B2817390778F0AC014E5F36
:102240005F4F2417350748F04E0F5F1F5093610210
:1022500040936002819391939FCFF0E0E0E09CCFA8
:10226000CF93DF930097E9F0FC013297138212823B
:10227000A0916202B0916302ED0130E020E010977E
:10228000A1F420813181820F931F2091600230914F
:1022900061022817390709F061C0F0936102E093E9
:1022A0006002DF91CF910895EA01CE17DF07E8F5CC
:1022B0004A815B819E0141155105B1F7E901FB831C
:1022C000EA8349915991C40FD51FEC17FD0761F4BA
:1022D000808191810296840F951FE90199838883FB
:1022E000828193819B838A83F0E0E0E012968D9156
:1022F0009C9113970097B9F52D913C911197CD01C1
:102300000296820F931F209160023091610228177C
:10231000390739F6309751F5109263021092620234
:10232000B0936102A0936002BCCFD383C28340818B
:102330005181840F951FC817D90761F44E5F5F4F15
:1023400088819981480F591F518340838A819B81DD
:10235000938382832115310509F0B0CFF093630296
:10236000E09362029ECFFD01DC01C0CF1382128296
:10237000D7CFB0E0A0E0EFEBF1E10C9428108C0196
:10238000009751F4CB010E9494108C01C801CDB785
:10239000DEB7E0E10C944410FC01E60FF71F9C014E
:1023A00022503109E217F30708F49DC0D901CD91FD
:1023B000DC911197C617D70798F0C530D10530F3D7
:1023C000CE0104978617970708F3C61BD70B2297F1
:1023D000C193D1936D937C93CF010E943011D6CFDE
:1023E0005B01AC1ABD0A4C018C0E9D1EA0916202CD
:1023F000B0916302512C412CF12CE12C109731F556
:1024000080916002909161028815990509F05CC085
:102410004616570608F058C08091010190910201BC
:10242000009741F48DB79EB7409105015091060188
:10243000841B950BE817F90708F055C0F09361026B
:10244000E0936002F90171836083A0CF8D919C912C
:10245000119712966C90129713967C901397A8156B
:10246000B90559F56C0142E0C40ED11CCA14DB0455
:1024700020F1AC014A195B09DA011296159780F038
:102480006282738251834083D9016D937C93E114FE
:10249000F10471F0D7011396FC93EE93129776CF67
:1024A00022968C0F9D1FF90191838083F301EFCF5A
:1024B000F0936302E093620269CF4816590608F46C
:1024C0002C017D01D3019ACFCB010E9494107C0195
:1024D000009749F0AE01B8010E947612C8010E942F
:1024E0003011870153CF10E000E050CFFB01DC0139
:1024F00002C001900D9241505040D8F70895FB0161
:10250000DC0101900D920020E1F70895F894FFCFCF
:1025100012000064028000FFFFFFFFFFFF000000C9
:1025200000970437036403FF0455047303B90300E1
:10253000000000AB077C091F050D0A002000577240
:102540006F7465206E6577206461746120746F20FC
:10255000796F757220626C6F636B2E204D617962AA
:1025600065206E6F742E2049207468696E6B207927
:102570006F752073686F756C6420676F20616E647F
:1025800020636865636B206974206F75742E00008A
:00000001FF
